{
  "_format": "hh-sol-artifact-1",
  "contractName": "NFTMarket",
  "sourceName": "contracts/Market.sol",
  "abi": [
    {
      "inputs": [],
      "stateMutability": "nonpayable",
      "type": "constructor"
    },
    {
      "anonymous": false,
      "inputs": [
        {
          "indexed": true,
          "internalType": "uint256",
          "name": "itemId",
          "type": "uint256"
        },
        {
          "indexed": true,
          "internalType": "address",
          "name": "nftContract",
          "type": "address"
        },
        {
          "indexed": true,
          "internalType": "uint256",
          "name": "tokenId",
          "type": "uint256"
        },
        {
          "indexed": false,
          "internalType": "address",
          "name": "seller",
          "type": "address"
        },
        {
          "indexed": false,
          "internalType": "address",
          "name": "owner",
          "type": "address"
        },
        {
          "indexed": false,
          "internalType": "uint256",
          "name": "price",
          "type": "uint256"
        },
        {
          "indexed": false,
          "internalType": "bool",
          "name": "sold",
          "type": "bool"
        }
      ],
      "name": "MarketItemCreated",
      "type": "event"
    },
    {
      "inputs": [
        {
          "internalType": "address",
          "name": "nftContract",
          "type": "address"
        },
        {
          "internalType": "uint256",
          "name": "tokenId",
          "type": "uint256"
        },
        {
          "internalType": "uint256",
          "name": "price",
          "type": "uint256"
        }
      ],
      "name": "createMarketItem",
      "outputs": [],
      "stateMutability": "payable",
      "type": "function"
    },
    {
      "inputs": [
        {
          "internalType": "address",
          "name": "nftContract",
          "type": "address"
        },
        {
          "internalType": "uint256",
          "name": "itemId",
          "type": "uint256"
        }
      ],
      "name": "createMarketSale",
      "outputs": [],
      "stateMutability": "payable",
      "type": "function"
    },
    {
      "inputs": [],
      "name": "fetchItemsCreated",
      "outputs": [
        {
          "components": [
            {
              "internalType": "uint256",
              "name": "itemId",
              "type": "uint256"
            },
            {
              "internalType": "address",
              "name": "nftContract",
              "type": "address"
            },
            {
              "internalType": "uint256",
              "name": "tokenId",
              "type": "uint256"
            },
            {
              "internalType": "address payable",
              "name": "seller",
              "type": "address"
            },
            {
              "internalType": "address payable",
              "name": "owner",
              "type": "address"
            },
            {
              "internalType": "uint256",
              "name": "price",
              "type": "uint256"
            },
            {
              "internalType": "bool",
              "name": "sold",
              "type": "bool"
            }
          ],
          "internalType": "struct NFTMarket.MarketItem[]",
          "name": "",
          "type": "tuple[]"
        }
      ],
      "stateMutability": "view",
      "type": "function"
    },
    {
      "inputs": [],
      "name": "fetchMarketItems",
      "outputs": [
        {
          "components": [
            {
              "internalType": "uint256",
              "name": "itemId",
              "type": "uint256"
            },
            {
              "internalType": "address",
              "name": "nftContract",
              "type": "address"
            },
            {
              "internalType": "uint256",
              "name": "tokenId",
              "type": "uint256"
            },
            {
              "internalType": "address payable",
              "name": "seller",
              "type": "address"
            },
            {
              "internalType": "address payable",
              "name": "owner",
              "type": "address"
            },
            {
              "internalType": "uint256",
              "name": "price",
              "type": "uint256"
            },
            {
              "internalType": "bool",
              "name": "sold",
              "type": "bool"
            }
          ],
          "internalType": "struct NFTMarket.MarketItem[]",
          "name": "",
          "type": "tuple[]"
        }
      ],
      "stateMutability": "view",
      "type": "function"
    },
    {
      "inputs": [],
      "name": "fetchMyNFTs",
      "outputs": [
        {
          "components": [
            {
              "internalType": "uint256",
              "name": "itemId",
              "type": "uint256"
            },
            {
              "internalType": "address",
              "name": "nftContract",
              "type": "address"
            },
            {
              "internalType": "uint256",
              "name": "tokenId",
              "type": "uint256"
            },
            {
              "internalType": "address payable",
              "name": "seller",
              "type": "address"
            },
            {
              "internalType": "address payable",
              "name": "owner",
              "type": "address"
            },
            {
              "internalType": "uint256",
              "name": "price",
              "type": "uint256"
            },
            {
              "internalType": "bool",
              "name": "sold",
              "type": "bool"
            }
          ],
          "internalType": "struct NFTMarket.MarketItem[]",
          "name": "",
          "type": "tuple[]"
        }
      ],
      "stateMutability": "view",
      "type": "function"
    },
    {
      "inputs": [],
      "name": "getListingPrice",
      "outputs": [
        {
          "internalType": "uint256",
          "name": "",
          "type": "uint256"
        }
      ],
      "stateMutability": "view",
      "type": "function"
    },
    {
      "inputs": [
        {
          "internalType": "address",
          "name": "nftContract",
          "type": "address"
        },
        {
          "internalType": "uint256",
          "name": "tokenId",
          "type": "uint256"
        }
      ],
      "name": "relistItem",
      "outputs": [],
      "stateMutability": "payable",
      "type": "function"
    }
  ],
  "bytecode": "0x60806040526658d15e1762800060045534801561001b57600080fd5b50600160008190555033600360006101000a81548173ffffffffffffffffffffffffffffffffffffffff021916908373ffffffffffffffffffffffffffffffffffffffff160217905550611be6806100746000396000f3fe6080604052600436106100705760003560e01c806358eb2df51161004e57806358eb2df5146100f657806372d22dfe14610112578063c23b139e1461012e578063f064c32e1461014a57610070565b80630f08efe01461007557806312e85585146100a0578063202e3740146100cb575b600080fd5b34801561008157600080fd5b5061008a610175565b6040516100979190611855565b60405180910390f35b3480156100ac57600080fd5b506100b561048b565b6040516100c291906118f7565b60405180910390f35b3480156100d757600080fd5b506100e0610495565b6040516100ed9190611855565b60405180910390f35b610110600480360381019061010b9190611576565b61082f565b005b61012c6004803603810190610127919061153a565b610b4f565b005b6101486004803603810190610143919061153a565b610d27565b005b34801561015657600080fd5b5061015f610f75565b60405161016c9190611855565b60405180910390f35b60606000610183600161130f565b90506000610191600261130f565b61019b600161130f565b6101a591906119b2565b90506000808267ffffffffffffffff8111156101ea577f4e487b7100000000000000000000000000000000000000000000000000000000600052604160045260246000fd5b60405190808252806020026020018201604052801561022357816020015b610210611451565b8152602001906001900390816102085790505b50905060005b8481101561048057600073ffffffffffffffffffffffffffffffffffffffff166005600060018461025a919061195c565b815260200190815260200160002060040160009054906101000a900473ffffffffffffffffffffffffffffffffffffffff1673ffffffffffffffffffffffffffffffffffffffff16141561046d5760006001826102b7919061195c565b90506000600560008381526020019081526020016000209050806040518060e0016040529081600082015481526020016001820160009054906101000a900473ffffffffffffffffffffffffffffffffffffffff1673ffffffffffffffffffffffffffffffffffffffff1673ffffffffffffffffffffffffffffffffffffffff168152602001600282015481526020016003820160009054906101000a900473ffffffffffffffffffffffffffffffffffffffff1673ffffffffffffffffffffffffffffffffffffffff1673ffffffffffffffffffffffffffffffffffffffff1681526020016004820160009054906101000a900473ffffffffffffffffffffffffffffffffffffffff1673ffffffffffffffffffffffffffffffffffffffff1673ffffffffffffffffffffffffffffffffffffffff168152602001600582015481526020016006820160009054906101000a900460ff161515151581525050848681518110610450577f4e487b7100000000000000000000000000000000000000000000000000000000600052603260045260246000fd5b6020026020010181905250600185610468919061195c565b945050505b808061047890611a40565b915050610229565b508094505050505090565b6000600454905090565b606060006104a3600161130f565b905060008060005b8381101561054c573373ffffffffffffffffffffffffffffffffffffffff16600560006001846104db919061195c565b815260200190815260200160002060040160009054906101000a900473ffffffffffffffffffffffffffffffffffffffff1673ffffffffffffffffffffffffffffffffffffffff16141561053957600183610536919061195c565b92505b808061054490611a40565b9150506104ab565b5060008267ffffffffffffffff81111561058f577f4e487b7100000000000000000000000000000000000000000000000000000000600052604160045260246000fd5b6040519080825280602002602001820160405280156105c857816020015b6105b5611451565b8152602001906001900390816105ad5790505b50905060005b84811015610824573373ffffffffffffffffffffffffffffffffffffffff16600560006001846105fe919061195c565b815260200190815260200160002060040160009054906101000a900473ffffffffffffffffffffffffffffffffffffffff1673ffffffffffffffffffffffffffffffffffffffff16141561081157600060018261065b919061195c565b90506000600560008381526020019081526020016000209050806040518060e0016040529081600082015481526020016001820160009054906101000a900473ffffffffffffffffffffffffffffffffffffffff1673ffffffffffffffffffffffffffffffffffffffff1673ffffffffffffffffffffffffffffffffffffffff168152602001600282015481526020016003820160009054906101000a900473ffffffffffffffffffffffffffffffffffffffff1673ffffffffffffffffffffffffffffffffffffffff1673ffffffffffffffffffffffffffffffffffffffff1681526020016004820160009054906101000a900473ffffffffffffffffffffffffffffffffffffffff1673ffffffffffffffffffffffffffffffffffffffff1673ffffffffffffffffffffffffffffffffffffffff168152602001600582015481526020016006820160009054906101000a900460ff1615151515815250508486815181106107f4577f4e487b7100000000000000000000000000000000000000000000000000000000600052603260045260246000fd5b602002602001018190525060018561080c919061195c565b945050505b808061081c90611a40565b9150506105ce565b508094505050505090565b60026000541415610875576040517f08c379a000000000000000000000000000000000000000000000000000000000815260040161086c906118b7565b60405180910390fd5b6002600081905550600081116108c0576040517f08c379a00000000000000000000000000000000000000000000000000000000081526004016108b7906118d7565b60405180910390fd5b6108ca600161131d565b60006108d6600161130f565b90506040518060e001604052808281526020018573ffffffffffffffffffffffffffffffffffffffff1681526020018481526020013373ffffffffffffffffffffffffffffffffffffffff168152602001600073ffffffffffffffffffffffffffffffffffffffff16815260200183815260200160001515815250600560008381526020019081526020016000206000820151816000015560208201518160010160006101000a81548173ffffffffffffffffffffffffffffffffffffffff021916908373ffffffffffffffffffffffffffffffffffffffff1602179055506040820151816002015560608201518160030160006101000a81548173ffffffffffffffffffffffffffffffffffffffff021916908373ffffffffffffffffffffffffffffffffffffffff16021790555060808201518160040160006101000a81548173ffffffffffffffffffffffffffffffffffffffff021916908373ffffffffffffffffffffffffffffffffffffffff16021790555060a0820151816005015560c08201518160060160006101000a81548160ff0219169083151502179055509050508373ffffffffffffffffffffffffffffffffffffffff166323b872dd3330866040518463ffffffff1660e01b8152600401610ab7939291906117d9565b600060405180830381600087803b158015610ad157600080fd5b505af1158015610ae5573d6000803e3d6000fd5b50505050828473ffffffffffffffffffffffffffffffffffffffff16827f045dfa01dcba2b36aba1d3dc4a874f4b0c5d2fbeb8d2c4b34a7d88c8d8f929d1336000876000604051610b399493929190611810565b60405180910390a4506001600081905550505050565b60026000541415610b95576040517f08c379a0000000000000000000000000000000000000000000000000000000008152600401610b8c906118b7565b60405180910390fd5b6002600081905550610c2e8273ffffffffffffffffffffffffffffffffffffffff16636352211e836040518263ffffffff1660e01b8152600401610bd991906118f7565b60206040518083038186803b158015610bf157600080fd5b505afa158015610c05573d6000803e3d6000fd5b505050506040513d601f19601f82011682018060405250810190610c299190611511565b611333565b610c3733611333565b60006005600083815260200190815260200160002060040160006101000a81548173ffffffffffffffffffffffffffffffffffffffff021916908373ffffffffffffffffffffffffffffffffffffffff16021790555060006005600083815260200190815260200160002060060160006101000a81548160ff021916908315150217905550336005600083815260200190815260200160002060030160006101000a81548173ffffffffffffffffffffffffffffffffffffffff021916908373ffffffffffffffffffffffffffffffffffffffff160217905550610d1b60026113cc565b60016000819055505050565b60026000541415610d6d576040517f08c379a0000000000000000000000000000000000000000000000000000000008152600401610d64906118b7565b60405180910390fd5b6002600081905550600060056000838152602001908152602001600020600501549050600060056000848152602001908152602001600020600201549050813414610ded576040517f08c379a0000000000000000000000000000000000000000000000000000000008152600401610de490611897565b60405180910390fd5b6005600084815260200190815260200160002060030160009054906101000a900473ffffffffffffffffffffffffffffffffffffffff1673ffffffffffffffffffffffffffffffffffffffff166108fc349081150290604051600060405180830381858888f19350505050158015610e69573d6000803e3d6000fd5b508373ffffffffffffffffffffffffffffffffffffffff166323b872dd3033846040518463ffffffff1660e01b8152600401610ea7939291906117d9565b600060405180830381600087803b158015610ec157600080fd5b505af1158015610ed5573d6000803e3d6000fd5b50505050336005600085815260200190815260200160002060040160006101000a81548173ffffffffffffffffffffffffffffffffffffffff021916908373ffffffffffffffffffffffffffffffffffffffff16021790555060016005600085815260200190815260200160002060060160006101000a81548160ff021916908315150217905550610f67600261131d565b505060016000819055505050565b60606000610f83600161130f565b905060008060005b8381101561102c573373ffffffffffffffffffffffffffffffffffffffff1660056000600184610fbb919061195c565b815260200190815260200160002060030160009054906101000a900473ffffffffffffffffffffffffffffffffffffffff1673ffffffffffffffffffffffffffffffffffffffff16141561101957600183611016919061195c565b92505b808061102490611a40565b915050610f8b565b5060008267ffffffffffffffff81111561106f577f4e487b7100000000000000000000000000000000000000000000000000000000600052604160045260246000fd5b6040519080825280602002602001820160405280156110a857816020015b611095611451565b81526020019060019003908161108d5790505b50905060005b84811015611304573373ffffffffffffffffffffffffffffffffffffffff16600560006001846110de919061195c565b815260200190815260200160002060030160009054906101000a900473ffffffffffffffffffffffffffffffffffffffff1673ffffffffffffffffffffffffffffffffffffffff1614156112f157600060018261113b919061195c565b90506000600560008381526020019081526020016000209050806040518060e0016040529081600082015481526020016001820160009054906101000a900473ffffffffffffffffffffffffffffffffffffffff1673ffffffffffffffffffffffffffffffffffffffff1673ffffffffffffffffffffffffffffffffffffffff168152602001600282015481526020016003820160009054906101000a900473ffffffffffffffffffffffffffffffffffffffff1673ffffffffffffffffffffffffffffffffffffffff1673ffffffffffffffffffffffffffffffffffffffff1681526020016004820160009054906101000a900473ffffffffffffffffffffffffffffffffffffffff1673ffffffffffffffffffffffffffffffffffffffff1673ffffffffffffffffffffffffffffffffffffffff168152602001600582015481526020016006820160009054906101000a900460ff1615151515815250508486815181106112d4577f4e487b7100000000000000000000000000000000000000000000000000000000600052603260045260246000fd5b60200260200101819052506001856112ec919061195c565b945050505b80806112fc90611a40565b9150506110ae565b508094505050505090565b600081600001549050919050565b6001816000016000828254019250508190555050565b6113c98160405160240161134791906117be565b6040516020818303038152906040527f2c2ecbc2000000000000000000000000000000000000000000000000000000007bffffffffffffffffffffffffffffffffffffffffffffffffffffffff19166020820180517bffffffffffffffffffffffffffffffffffffffffffffffffffffffff8381831617835250505050611428565b50565b60008160000154905060008111611418576040517f08c379a000000000000000000000000000000000000000000000000000000000815260040161140f90611877565b60405180910390fd5b6001810382600001819055505050565b60008151905060006a636f6e736f6c652e6c6f679050602083016000808483855afa5050505050565b6040518060e0016040528060008152602001600073ffffffffffffffffffffffffffffffffffffffff16815260200160008152602001600073ffffffffffffffffffffffffffffffffffffffff168152602001600073ffffffffffffffffffffffffffffffffffffffff168152602001600081526020016000151581525090565b6000813590506114e181611b82565b92915050565b6000815190506114f681611b82565b92915050565b60008135905061150b81611b99565b92915050565b60006020828403121561152357600080fd5b6000611531848285016114e7565b91505092915050565b6000806040838503121561154d57600080fd5b600061155b858286016114d2565b925050602061156c858286016114fc565b9150509250929050565b60008060006060848603121561158b57600080fd5b6000611599868287016114d2565b93505060206115aa868287016114fc565b92505060406115bb868287016114fc565b9150509250925092565b60006115d18383611712565b60e08301905092915050565b6115e6816119f8565b82525050565b6115f5816119e6565b82525050565b611604816119e6565b82525050565b600061161582611922565b61161f818561193a565b935061162a83611912565b8060005b8381101561165b57815161164288826115c5565b975061164d8361192d565b92505060018101905061162e565b5085935050505092915050565b61167181611a0a565b82525050565b61168081611a0a565b82525050565b6000611693601b8361194b565b915061169e82611ab8565b602082019050919050565b60006116b660408361194b565b91506116c182611ae1565b604082019050919050565b60006116d9601f8361194b565b91506116e482611b30565b602082019050919050565b60006116fc601c8361194b565b915061170782611b59565b602082019050919050565b60e08201600082015161172860008501826117a0565b50602082015161173b60208501826115ec565b50604082015161174e60408501826117a0565b50606082015161176160608501826115dd565b50608082015161177460808501826115dd565b5060a082015161178760a08501826117a0565b5060c082015161179a60c0850182611668565b50505050565b6117a981611a36565b82525050565b6117b881611a36565b82525050565b60006020820190506117d360008301846115fb565b92915050565b60006060820190506117ee60008301866115fb565b6117fb60208301856115fb565b61180860408301846117af565b949350505050565b600060808201905061182560008301876115fb565b61183260208301866115fb565b61183f60408301856117af565b61184c6060830184611677565b95945050505050565b6000602082019050818103600083015261186f818461160a565b905092915050565b6000602082019050818103600083015261189081611686565b9050919050565b600060208201905081810360008301526118b0816116a9565b9050919050565b600060208201905081810360008301526118d0816116cc565b9050919050565b600060208201905081810360008301526118f0816116ef565b9050919050565b600060208201905061190c60008301846117af565b92915050565b6000819050602082019050919050565b600081519050919050565b6000602082019050919050565b600082825260208201905092915050565b600082825260208201905092915050565b600061196782611a36565b915061197283611a36565b9250827fffffffffffffffffffffffffffffffffffffffffffffffffffffffffffffffff038211156119a7576119a6611a89565b5b828201905092915050565b60006119bd82611a36565b91506119c883611a36565b9250828210156119db576119da611a89565b5b828203905092915050565b60006119f182611a16565b9050919050565b6000611a0382611a16565b9050919050565b60008115159050919050565b600073ffffffffffffffffffffffffffffffffffffffff82169050919050565b6000819050919050565b6000611a4b82611a36565b91507fffffffffffffffffffffffffffffffffffffffffffffffffffffffffffffffff821415611a7e57611a7d611a89565b5b600182019050919050565b7f4e487b7100000000000000000000000000000000000000000000000000000000600052601160045260246000fd5b7f436f756e7465723a2064656372656d656e74206f766572666c6f770000000000600082015250565b7f506c65617365207375626d6974207468652061736b696e67207072696365206960008201527f6e206f7264657220746f20636f6d706c65746520746865207075726368617365602082015250565b7f5265656e7472616e637947756172643a207265656e7472616e742063616c6c00600082015250565b7f5072696365206d757374206265206174206c6561737420312077656900000000600082015250565b611b8b816119e6565b8114611b9657600080fd5b50565b611ba281611a36565b8114611bad57600080fd5b5056fea2646970667358221220ecceb6d6fe2652db25273de12e3edd55eb4604010d7367b841ea33fbbfe9672f64736f6c63430008030033",
  "linkReferences": {},
  "deployedLinkReferences": {}
}