{
  "_format": "hh-sol-artifact-1",
  "contractName": "NFTMarket",
  "sourceName": "contracts/Market.sol",
  "abi": [
    {
      "inputs": [],
      "stateMutability": "nonpayable",
      "type": "constructor"
    },
    {
      "anonymous": false,
      "inputs": [
        {
          "indexed": true,
          "internalType": "uint256",
          "name": "itemId",
          "type": "uint256"
        },
        {
          "indexed": true,
          "internalType": "address",
          "name": "nftContract",
          "type": "address"
        },
        {
          "indexed": true,
          "internalType": "uint256",
          "name": "tokenId",
          "type": "uint256"
        },
        {
          "indexed": false,
          "internalType": "address",
          "name": "seller",
          "type": "address"
        },
        {
          "indexed": false,
          "internalType": "address",
          "name": "owner",
          "type": "address"
        },
        {
          "indexed": false,
          "internalType": "uint256",
          "name": "price",
          "type": "uint256"
        },
        {
          "indexed": false,
          "internalType": "bool",
          "name": "sold",
          "type": "bool"
        }
      ],
      "name": "MarketItemCreated",
      "type": "event"
    },
    {
      "inputs": [
        {
          "internalType": "address",
          "name": "nftContract",
          "type": "address"
        },
        {
          "internalType": "uint256",
          "name": "tokenId",
          "type": "uint256"
        },
        {
          "internalType": "uint256",
          "name": "price",
          "type": "uint256"
        }
      ],
      "name": "createMarketItem",
      "outputs": [],
      "stateMutability": "payable",
      "type": "function"
    },
    {
      "inputs": [
        {
          "internalType": "address",
          "name": "nftContract",
          "type": "address"
        },
        {
          "internalType": "uint256",
          "name": "itemId",
          "type": "uint256"
        }
      ],
      "name": "createMarketSale",
      "outputs": [],
      "stateMutability": "payable",
      "type": "function"
    },
    {
      "inputs": [],
      "name": "fetchItemsCreated",
      "outputs": [
        {
          "components": [
            {
              "internalType": "uint256",
              "name": "itemId",
              "type": "uint256"
            },
            {
              "internalType": "address",
              "name": "nftContract",
              "type": "address"
            },
            {
              "internalType": "uint256",
              "name": "tokenId",
              "type": "uint256"
            },
            {
              "internalType": "address payable",
              "name": "seller",
              "type": "address"
            },
            {
              "internalType": "address payable",
              "name": "owner",
              "type": "address"
            },
            {
              "internalType": "uint256",
              "name": "price",
              "type": "uint256"
            },
            {
              "internalType": "bool",
              "name": "sold",
              "type": "bool"
            }
          ],
          "internalType": "struct NFTMarket.MarketItem[]",
          "name": "",
          "type": "tuple[]"
        }
      ],
      "stateMutability": "view",
      "type": "function"
    },
    {
      "inputs": [],
      "name": "fetchMarketItems",
      "outputs": [
        {
          "components": [
            {
              "internalType": "uint256",
              "name": "itemId",
              "type": "uint256"
            },
            {
              "internalType": "address",
              "name": "nftContract",
              "type": "address"
            },
            {
              "internalType": "uint256",
              "name": "tokenId",
              "type": "uint256"
            },
            {
              "internalType": "address payable",
              "name": "seller",
              "type": "address"
            },
            {
              "internalType": "address payable",
              "name": "owner",
              "type": "address"
            },
            {
              "internalType": "uint256",
              "name": "price",
              "type": "uint256"
            },
            {
              "internalType": "bool",
              "name": "sold",
              "type": "bool"
            }
          ],
          "internalType": "struct NFTMarket.MarketItem[]",
          "name": "",
          "type": "tuple[]"
        }
      ],
      "stateMutability": "view",
      "type": "function"
    },
    {
      "inputs": [],
      "name": "fetchMyNFTs",
      "outputs": [
        {
          "components": [
            {
              "internalType": "uint256",
              "name": "itemId",
              "type": "uint256"
            },
            {
              "internalType": "address",
              "name": "nftContract",
              "type": "address"
            },
            {
              "internalType": "uint256",
              "name": "tokenId",
              "type": "uint256"
            },
            {
              "internalType": "address payable",
              "name": "seller",
              "type": "address"
            },
            {
              "internalType": "address payable",
              "name": "owner",
              "type": "address"
            },
            {
              "internalType": "uint256",
              "name": "price",
              "type": "uint256"
            },
            {
              "internalType": "bool",
              "name": "sold",
              "type": "bool"
            }
          ],
          "internalType": "struct NFTMarket.MarketItem[]",
          "name": "",
          "type": "tuple[]"
        }
      ],
      "stateMutability": "view",
      "type": "function"
    },
    {
      "inputs": [],
      "name": "getListingPrice",
      "outputs": [
        {
          "internalType": "uint256",
          "name": "",
          "type": "uint256"
        }
      ],
      "stateMutability": "view",
      "type": "function"
    },
    {
      "inputs": [
        {
          "internalType": "address",
          "name": "nftContract",
          "type": "address"
        },
        {
          "internalType": "uint256",
          "name": "tokenId",
          "type": "uint256"
        }
      ],
      "name": "relistItem",
      "outputs": [],
      "stateMutability": "payable",
      "type": "function"
    }
  ],
  "bytecode": "0x60806040526658d15e1762800060045534801561001b57600080fd5b50600160008190555033600360006101000a81548173ffffffffffffffffffffffffffffffffffffffff021916908373ffffffffffffffffffffffffffffffffffffffff16021790555061209f806100746000396000f3fe6080604052600436106100705760003560e01c806358eb2df51161004e57806358eb2df5146100f657806372d22dfe14610112578063c23b139e1461012e578063f064c32e1461014a57610070565b80630f08efe01461007557806312e85585146100a0578063202e3740146100cb575b600080fd5b34801561008157600080fd5b5061008a610175565b6040516100979190611c20565b60405180910390f35b3480156100ac57600080fd5b506100b561050a565b6040516100c29190611d12565b60405180910390f35b3480156100d757600080fd5b506100e0610514565b6040516100ed9190611c20565b60405180910390f35b610110600480360381019061010b91906118e5565b6108ed565b005b61012c600480360381019061012791906118a9565b610ceb565b005b610148600480360381019061014391906118a9565b610ef5565b005b34801561015657600080fd5b5061015f611248565b60405161016c9190611c20565b60405180910390f35b6060600061018360016115e2565b9050600061019160026115e2565b61019b60016115e2565b6101a59190611dd8565b905060006101e86040518060400160405280600c81526020017f4954454d20434f554e543a200000000000000000000000000000000000000000815250846115f0565b6102276040518060400160405280601381526020017f554e534f4c44204954454d20434f554e543a2000000000000000000000000000815250836115f0565b60008267ffffffffffffffff811115610269577f4e487b7100000000000000000000000000000000000000000000000000000000600052604160045260246000fd5b6040519080825280602002602001820160405280156102a257816020015b61028f6117c0565b8152602001906001900390816102875790505b50905060005b848110156104ff57600073ffffffffffffffffffffffffffffffffffffffff16600560006001846102d99190611d82565b815260200190815260200160002060040160009054906101000a900473ffffffffffffffffffffffffffffffffffffffff1673ffffffffffffffffffffffffffffffffffffffff1614156104ec5760006001826103369190611d82565b90506000600560008381526020019081526020016000209050806040518060e0016040529081600082015481526020016001820160009054906101000a900473ffffffffffffffffffffffffffffffffffffffff1673ffffffffffffffffffffffffffffffffffffffff1673ffffffffffffffffffffffffffffffffffffffff168152602001600282015481526020016003820160009054906101000a900473ffffffffffffffffffffffffffffffffffffffff1673ffffffffffffffffffffffffffffffffffffffff1673ffffffffffffffffffffffffffffffffffffffff1681526020016004820160009054906101000a900473ffffffffffffffffffffffffffffffffffffffff1673ffffffffffffffffffffffffffffffffffffffff1673ffffffffffffffffffffffffffffffffffffffff168152602001600582015481526020016006820160009054906101000a900460ff1615151515815250508486815181106104cf577f4e487b7100000000000000000000000000000000000000000000000000000000600052603260045260246000fd5b60200260200101819052506001856104e79190611d82565b945050505b80806104f790611e99565b9150506102a8565b508094505050505090565b6000600454905090565b6060600061052260016115e2565b905060008060005b838110156105cb573373ffffffffffffffffffffffffffffffffffffffff166005600060018461055a9190611d82565b815260200190815260200160002060040160009054906101000a900473ffffffffffffffffffffffffffffffffffffffff1673ffffffffffffffffffffffffffffffffffffffff1614156105b8576001836105b59190611d82565b92505b80806105c390611e99565b91505061052a565b5061060b6040518060400160405280600481526020017f7468697300000000000000000000000000000000000000000000000000000000815250836115f0565b60008267ffffffffffffffff81111561064d577f4e487b7100000000000000000000000000000000000000000000000000000000600052604160045260246000fd5b60405190808252806020026020018201604052801561068657816020015b6106736117c0565b81526020019060019003908161066b5790505b50905060005b848110156108e2573373ffffffffffffffffffffffffffffffffffffffff16600560006001846106bc9190611d82565b815260200190815260200160002060040160009054906101000a900473ffffffffffffffffffffffffffffffffffffffff1673ffffffffffffffffffffffffffffffffffffffff1614156108cf5760006001826107199190611d82565b90506000600560008381526020019081526020016000209050806040518060e0016040529081600082015481526020016001820160009054906101000a900473ffffffffffffffffffffffffffffffffffffffff1673ffffffffffffffffffffffffffffffffffffffff1673ffffffffffffffffffffffffffffffffffffffff168152602001600282015481526020016003820160009054906101000a900473ffffffffffffffffffffffffffffffffffffffff1673ffffffffffffffffffffffffffffffffffffffff1673ffffffffffffffffffffffffffffffffffffffff1681526020016004820160009054906101000a900473ffffffffffffffffffffffffffffffffffffffff1673ffffffffffffffffffffffffffffffffffffffff1673ffffffffffffffffffffffffffffffffffffffff168152602001600582015481526020016006820160009054906101000a900460ff1615151515815250508486815181106108b2577f4e487b7100000000000000000000000000000000000000000000000000000000600052603260045260246000fd5b60200260200101819052506001856108ca9190611d82565b945050505b80806108da90611e99565b91505061068c565b508094505050505090565b60026000541415610933576040517f08c379a000000000000000000000000000000000000000000000000000000000815260040161092a90611cd2565b60405180910390fd5b60026000819055506000811161097e576040517f08c379a000000000000000000000000000000000000000000000000000000000815260040161097590611cf2565b60405180910390fd5b60045434146109c2576040517f08c379a00000000000000000000000000000000000000000000000000000000081526004016109b990611cb2565b60405180910390fd5b6109cc600161168c565b60006109d860016115e2565b90506040518060e001604052808281526020018573ffffffffffffffffffffffffffffffffffffffff1681526020018481526020013373ffffffffffffffffffffffffffffffffffffffff168152602001600073ffffffffffffffffffffffffffffffffffffffff16815260200183815260200160001515815250600560008381526020019081526020016000206000820151816000015560208201518160010160006101000a81548173ffffffffffffffffffffffffffffffffffffffff021916908373ffffffffffffffffffffffffffffffffffffffff1602179055506040820151816002015560608201518160030160006101000a81548173ffffffffffffffffffffffffffffffffffffffff021916908373ffffffffffffffffffffffffffffffffffffffff16021790555060808201518160040160006101000a81548173ffffffffffffffffffffffffffffffffffffffff021916908373ffffffffffffffffffffffffffffffffffffffff16021790555060a0820151816005015560c08201518160060160006101000a81548160ff021916908315150217905550905050610c0d8473ffffffffffffffffffffffffffffffffffffffff16636352211e856040518263ffffffff1660e01b8152600401610bb89190611d12565b60206040518083038186803b158015610bd057600080fd5b505afa158015610be4573d6000803e3d6000fd5b505050506040513d601f19601f82011682018060405250810190610c089190611880565b6116a2565b610c16336116a2565b8373ffffffffffffffffffffffffffffffffffffffff166323b872dd3330866040518463ffffffff1660e01b8152600401610c5393929190611ba4565b600060405180830381600087803b158015610c6d57600080fd5b505af1158015610c81573d6000803e3d6000fd5b50505050828473ffffffffffffffffffffffffffffffffffffffff16827f045dfa01dcba2b36aba1d3dc4a874f4b0c5d2fbeb8d2c4b34a7d88c8d8f929d1336000876000604051610cd59493929190611bdb565b60405180910390a4506001600081905550505050565b60026000541415610d31576040517f08c379a0000000000000000000000000000000000000000000000000000000008152600401610d2890611cd2565b60405180910390fd5b6002600081905550610dca8273ffffffffffffffffffffffffffffffffffffffff16636352211e836040518263ffffffff1660e01b8152600401610d759190611d12565b60206040518083038186803b158015610d8d57600080fd5b505afa158015610da1573d6000803e3d6000fd5b505050506040513d601f19601f82011682018060405250810190610dc59190611880565b6116a2565b610dd3336116a2565b8173ffffffffffffffffffffffffffffffffffffffff16636352211e826040518263ffffffff1660e01b8152600401610e0c9190611d12565b60206040518083038186803b158015610e2457600080fd5b505afa158015610e38573d6000803e3d6000fd5b505050506040513d601f19601f82011682018060405250810190610e5c9190611880565b6005600083815260200190815260200160002060040160006101000a81548173ffffffffffffffffffffffffffffffffffffffff021916908373ffffffffffffffffffffffffffffffffffffffff16021790555060006005600083815260200190815260200160002060060160006101000a81548160ff021916908315150217905550610ee9600261173b565b60016000819055505050565b60026000541415610f3b576040517f08c379a0000000000000000000000000000000000000000000000000000000008152600401610f3290611cd2565b60405180910390fd5b6002600081905550600060056000838152602001908152602001600020600501549050600060056000848152602001908152602001600020600201549050813414610fbb576040517f08c379a0000000000000000000000000000000000000000000000000000000008152600401610fb290611c92565b60405180910390fd5b61104c8473ffffffffffffffffffffffffffffffffffffffff16636352211e836040518263ffffffff1660e01b8152600401610ff79190611d12565b60206040518083038186803b15801561100f57600080fd5b505afa158015611023573d6000803e3d6000fd5b505050506040513d601f19601f820116820180604052508101906110479190611880565b6116a2565b611055336116a2565b6005600084815260200190815260200160002060030160009054906101000a900473ffffffffffffffffffffffffffffffffffffffff1673ffffffffffffffffffffffffffffffffffffffff166108fc349081150290604051600060405180830381858888f193505050501580156110d1573d6000803e3d6000fd5b508373ffffffffffffffffffffffffffffffffffffffff166323b872dd3033846040518463ffffffff1660e01b815260040161110f93929190611ba4565b600060405180830381600087803b15801561112957600080fd5b505af115801561113d573d6000803e3d6000fd5b50505050336005600085815260200190815260200160002060040160006101000a81548173ffffffffffffffffffffffffffffffffffffffff021916908373ffffffffffffffffffffffffffffffffffffffff16021790555060016005600085815260200190815260200160002060060160006101000a81548160ff0219169083151502179055506111cf600261168c565b600360009054906101000a900473ffffffffffffffffffffffffffffffffffffffff1673ffffffffffffffffffffffffffffffffffffffff166108fc6004549081150290604051600060405180830381858888f19350505050158015611239573d6000803e3d6000fd5b50505060016000819055505050565b6060600061125660016115e2565b905060008060005b838110156112ff573373ffffffffffffffffffffffffffffffffffffffff166005600060018461128e9190611d82565b815260200190815260200160002060030160009054906101000a900473ffffffffffffffffffffffffffffffffffffffff1673ffffffffffffffffffffffffffffffffffffffff1614156112ec576001836112e99190611d82565b92505b80806112f790611e99565b91505061125e565b5060008267ffffffffffffffff811115611342577f4e487b7100000000000000000000000000000000000000000000000000000000600052604160045260246000fd5b60405190808252806020026020018201604052801561137b57816020015b6113686117c0565b8152602001906001900390816113605790505b50905060005b848110156115d7573373ffffffffffffffffffffffffffffffffffffffff16600560006001846113b19190611d82565b815260200190815260200160002060030160009054906101000a900473ffffffffffffffffffffffffffffffffffffffff1673ffffffffffffffffffffffffffffffffffffffff1614156115c457600060018261140e9190611d82565b90506000600560008381526020019081526020016000209050806040518060e0016040529081600082015481526020016001820160009054906101000a900473ffffffffffffffffffffffffffffffffffffffff1673ffffffffffffffffffffffffffffffffffffffff1673ffffffffffffffffffffffffffffffffffffffff168152602001600282015481526020016003820160009054906101000a900473ffffffffffffffffffffffffffffffffffffffff1673ffffffffffffffffffffffffffffffffffffffff1673ffffffffffffffffffffffffffffffffffffffff1681526020016004820160009054906101000a900473ffffffffffffffffffffffffffffffffffffffff1673ffffffffffffffffffffffffffffffffffffffff1673ffffffffffffffffffffffffffffffffffffffff168152602001600582015481526020016006820160009054906101000a900460ff1615151515815250508486815181106115a7577f4e487b7100000000000000000000000000000000000000000000000000000000600052603260045260246000fd5b60200260200101819052506001856115bf9190611d82565b945050505b80806115cf90611e99565b915050611381565b508094505050505090565b600081600001549050919050565b6116888282604051602401611606929190611c42565b6040516020818303038152906040527f9710a9d0000000000000000000000000000000000000000000000000000000007bffffffffffffffffffffffffffffffffffffffffffffffffffffffff19166020820180517bffffffffffffffffffffffffffffffffffffffffffffffffffffffff8381831617835250505050611797565b5050565b6001816000016000828254019250508190555050565b611738816040516024016116b69190611b89565b6040516020818303038152906040527f2c2ecbc2000000000000000000000000000000000000000000000000000000007bffffffffffffffffffffffffffffffffffffffffffffffffffffffff19166020820180517bffffffffffffffffffffffffffffffffffffffffffffffffffffffff8381831617835250505050611797565b50565b60008160000154905060008111611787576040517f08c379a000000000000000000000000000000000000000000000000000000000815260040161177e90611c72565b60405180910390fd5b6001810382600001819055505050565b60008151905060006a636f6e736f6c652e6c6f679050602083016000808483855afa5050505050565b6040518060e0016040528060008152602001600073ffffffffffffffffffffffffffffffffffffffff16815260200160008152602001600073ffffffffffffffffffffffffffffffffffffffff168152602001600073ffffffffffffffffffffffffffffffffffffffff168152602001600081526020016000151581525090565b6000813590506118508161203b565b92915050565b6000815190506118658161203b565b92915050565b60008135905061187a81612052565b92915050565b60006020828403121561189257600080fd5b60006118a084828501611856565b91505092915050565b600080604083850312156118bc57600080fd5b60006118ca85828601611841565b92505060206118db8582860161186b565b9150509250929050565b6000806000606084860312156118fa57600080fd5b600061190886828701611841565b93505060206119198682870161186b565b925050604061192a8682870161186b565b9150509250925092565b60006119408383611add565b60e08301905092915050565b61195581611e1e565b82525050565b61196481611e0c565b82525050565b61197381611e0c565b82525050565b600061198482611d3d565b61198e8185611d60565b935061199983611d2d565b8060005b838110156119ca5781516119b18882611934565b97506119bc83611d53565b92505060018101905061199d565b5085935050505092915050565b6119e081611e30565b82525050565b6119ef81611e30565b82525050565b6000611a0082611d48565b611a0a8185611d71565b9350611a1a818560208601611e66565b611a2381611f11565b840191505092915050565b6000611a3b601b83611d71565b9150611a4682611f22565b602082019050919050565b6000611a5e604083611d71565b9150611a6982611f4b565b604082019050919050565b6000611a81602483611d71565b9150611a8c82611f9a565b604082019050919050565b6000611aa4601f83611d71565b9150611aaf82611fe9565b602082019050919050565b6000611ac7601c83611d71565b9150611ad282612012565b602082019050919050565b60e082016000820151611af36000850182611b6b565b506020820151611b06602085018261195b565b506040820151611b196040850182611b6b565b506060820151611b2c606085018261194c565b506080820151611b3f608085018261194c565b5060a0820151611b5260a0850182611b6b565b5060c0820151611b6560c08501826119d7565b50505050565b611b7481611e5c565b82525050565b611b8381611e5c565b82525050565b6000602082019050611b9e600083018461196a565b92915050565b6000606082019050611bb9600083018661196a565b611bc6602083018561196a565b611bd36040830184611b7a565b949350505050565b6000608082019050611bf0600083018761196a565b611bfd602083018661196a565b611c0a6040830185611b7a565b611c1760608301846119e6565b95945050505050565b60006020820190508181036000830152611c3a8184611979565b905092915050565b60006040820190508181036000830152611c5c81856119f5565b9050611c6b6020830184611b7a565b9392505050565b60006020820190508181036000830152611c8b81611a2e565b9050919050565b60006020820190508181036000830152611cab81611a51565b9050919050565b60006020820190508181036000830152611ccb81611a74565b9050919050565b60006020820190508181036000830152611ceb81611a97565b9050919050565b60006020820190508181036000830152611d0b81611aba565b9050919050565b6000602082019050611d276000830184611b7a565b92915050565b6000819050602082019050919050565b600081519050919050565b600081519050919050565b6000602082019050919050565b600082825260208201905092915050565b600082825260208201905092915050565b6000611d8d82611e5c565b9150611d9883611e5c565b9250827fffffffffffffffffffffffffffffffffffffffffffffffffffffffffffffffff03821115611dcd57611dcc611ee2565b5b828201905092915050565b6000611de382611e5c565b9150611dee83611e5c565b925082821015611e0157611e00611ee2565b5b828203905092915050565b6000611e1782611e3c565b9050919050565b6000611e2982611e3c565b9050919050565b60008115159050919050565b600073ffffffffffffffffffffffffffffffffffffffff82169050919050565b6000819050919050565b60005b83811015611e84578082015181840152602081019050611e69565b83811115611e93576000848401525b50505050565b6000611ea482611e5c565b91507fffffffffffffffffffffffffffffffffffffffffffffffffffffffffffffffff821415611ed757611ed6611ee2565b5b600182019050919050565b7f4e487b7100000000000000000000000000000000000000000000000000000000600052601160045260246000fd5b6000601f19601f8301169050919050565b7f436f756e7465723a2064656372656d656e74206f766572666c6f770000000000600082015250565b7f506c65617365207375626d6974207468652061736b696e67207072696365206960008201527f6e206f7264657220746f20636f6d706c65746520746865207075726368617365602082015250565b7f5072696365206d75737420626520657175616c20746f206c697374696e67207060008201527f7269636500000000000000000000000000000000000000000000000000000000602082015250565b7f5265656e7472616e637947756172643a207265656e7472616e742063616c6c00600082015250565b7f5072696365206d757374206265206174206c6561737420312077656900000000600082015250565b61204481611e0c565b811461204f57600080fd5b50565b61205b81611e5c565b811461206657600080fd5b5056fea2646970667358221220fdcb3b2116bdda80f229d6090a729ccfb212c05108b8109be0fede7b2c5a61ca64736f6c63430008030033",
  "linkReferences": {},
  "deployedLinkReferences": {}
}