{
  "_format": "hh-sol-artifact-1",
  "contractName": "NFTMarket",
  "sourceName": "contracts/Market.sol",
  "abi": [
    {
      "anonymous": false,
      "inputs": [
        {
          "indexed": true,
          "internalType": "uint256",
          "name": "itemId",
          "type": "uint256"
        },
        {
          "indexed": true,
          "internalType": "address",
          "name": "nftContract",
          "type": "address"
        },
        {
          "indexed": true,
          "internalType": "uint256",
          "name": "tokenId",
          "type": "uint256"
        },
        {
          "indexed": false,
          "internalType": "address",
          "name": "seller",
          "type": "address"
        },
        {
          "indexed": false,
          "internalType": "address",
          "name": "owner",
          "type": "address"
        },
        {
          "indexed": false,
          "internalType": "uint256",
          "name": "price",
          "type": "uint256"
        },
        {
          "indexed": false,
          "internalType": "bool",
          "name": "sold",
          "type": "bool"
        }
      ],
      "name": "MarketItemCreated",
      "type": "event"
    },
    {
      "inputs": [
        {
          "internalType": "address",
          "name": "nftContract",
          "type": "address"
        },
        {
          "internalType": "uint256",
          "name": "tokenId",
          "type": "uint256"
        },
        {
          "internalType": "uint256",
          "name": "price",
          "type": "uint256"
        }
      ],
      "name": "createMarketItem",
      "outputs": [],
      "stateMutability": "payable",
      "type": "function"
    },
    {
      "inputs": [
        {
          "internalType": "uint256",
          "name": "itemId",
          "type": "uint256"
        }
      ],
      "name": "createMarketSale",
      "outputs": [],
      "stateMutability": "payable",
      "type": "function"
    },
    {
      "inputs": [],
      "name": "fetchMarketItemCount",
      "outputs": [
        {
          "internalType": "uint256",
          "name": "",
          "type": "uint256"
        }
      ],
      "stateMutability": "view",
      "type": "function"
    },
    {
      "inputs": [],
      "name": "fetchMarketItems",
      "outputs": [
        {
          "components": [
            {
              "internalType": "uint256",
              "name": "itemId",
              "type": "uint256"
            },
            {
              "internalType": "address",
              "name": "nftContract",
              "type": "address"
            },
            {
              "internalType": "uint256",
              "name": "tokenId",
              "type": "uint256"
            },
            {
              "internalType": "address payable",
              "name": "seller",
              "type": "address"
            },
            {
              "internalType": "address payable",
              "name": "owner",
              "type": "address"
            },
            {
              "internalType": "uint256",
              "name": "price",
              "type": "uint256"
            },
            {
              "internalType": "bool",
              "name": "sold",
              "type": "bool"
            }
          ],
          "internalType": "struct NFTMarket.MarketItem[]",
          "name": "",
          "type": "tuple[]"
        }
      ],
      "stateMutability": "view",
      "type": "function"
    },
    {
      "inputs": [],
      "name": "fetchMyNFTs",
      "outputs": [
        {
          "components": [
            {
              "internalType": "uint256",
              "name": "itemId",
              "type": "uint256"
            },
            {
              "internalType": "address",
              "name": "nftContract",
              "type": "address"
            },
            {
              "internalType": "uint256",
              "name": "tokenId",
              "type": "uint256"
            },
            {
              "internalType": "address payable",
              "name": "seller",
              "type": "address"
            },
            {
              "internalType": "address payable",
              "name": "owner",
              "type": "address"
            },
            {
              "internalType": "uint256",
              "name": "price",
              "type": "uint256"
            },
            {
              "internalType": "bool",
              "name": "sold",
              "type": "bool"
            }
          ],
          "internalType": "struct NFTMarket.MarketItem[]",
          "name": "",
          "type": "tuple[]"
        }
      ],
      "stateMutability": "view",
      "type": "function"
    },
    {
      "inputs": [],
      "name": "fetchOwnedNFTCount",
      "outputs": [
        {
          "internalType": "uint256",
          "name": "",
          "type": "uint256"
        }
      ],
      "stateMutability": "view",
      "type": "function"
    },
    {
      "inputs": [
        {
          "internalType": "uint256",
          "name": "price",
          "type": "uint256"
        },
        {
          "internalType": "uint256",
          "name": "tokenId",
          "type": "uint256"
        }
      ],
      "name": "relistItem",
      "outputs": [],
      "stateMutability": "payable",
      "type": "function"
    }
  ],
  "bytecode": "0x608060405234801561001057600080fd5b5060016000819055506119ff806100286000396000f3fe6080604052600436106100705760003560e01c806358eb2df51161004e57806358eb2df5146100f657806375ad1b1214610112578063941d72921461012e578063be9af5361461015957610070565b80630f08efe014610075578063202e3740146100a0578063354c565c146100cb575b600080fd5b34801561008157600080fd5b5061008a610175565b60405161009791906115ef565b60405180910390f35b3480156100ac57600080fd5b506100b56104aa565b6040516100c291906115ef565b60405180910390f35b3480156100d757600080fd5b506100e0610844565b6040516100ed91906116c1565b60405180910390f35b610110600480360381019061010b919061128d565b61086e565b005b61012c60048036038101906101279190611305565b610b8e565b005b34801561013a57600080fd5b50610143610d69565b60405161015091906116c1565b60405180910390f35b610173600480360381019061016e91906112dc565b610e26565b005b606060006101836001611004565b905060006101916002611004565b61019b6001611004565b6101a59190611787565b90506000808267ffffffffffffffff8111156101ea577f4e487b7100000000000000000000000000000000000000000000000000000000600052604160045260246000fd5b60405190808252806020026020018201604052801561022357816020015b6102106111e2565b8152602001906001900390816102085790505b50905060005b8481101561049f57600073ffffffffffffffffffffffffffffffffffffffff166003600060018461025a9190611731565b815260200190815260200160002060040160009054906101000a900473ffffffffffffffffffffffffffffffffffffffff1673ffffffffffffffffffffffffffffffffffffffff16141561048c5760006001826102b79190611731565b90506102d86003600083815260200190815260200160002060050154611012565b6000600360008381526020019081526020016000209050806040518060e0016040529081600082015481526020016001820160009054906101000a900473ffffffffffffffffffffffffffffffffffffffff1673ffffffffffffffffffffffffffffffffffffffff1673ffffffffffffffffffffffffffffffffffffffff168152602001600282015481526020016003820160009054906101000a900473ffffffffffffffffffffffffffffffffffffffff1673ffffffffffffffffffffffffffffffffffffffff1673ffffffffffffffffffffffffffffffffffffffff1681526020016004820160009054906101000a900473ffffffffffffffffffffffffffffffffffffffff1673ffffffffffffffffffffffffffffffffffffffff1673ffffffffffffffffffffffffffffffffffffffff168152602001600582015481526020016006820160009054906101000a900460ff16151515158152505084868151811061046f577f4e487b7100000000000000000000000000000000000000000000000000000000600052603260045260246000fd5b60200260200101819052506001856104879190611731565b945050505b808061049790611848565b915050610229565b508094505050505090565b606060006104b86001611004565b905060008060005b83811015610561573373ffffffffffffffffffffffffffffffffffffffff16600360006001846104f09190611731565b815260200190815260200160002060040160009054906101000a900473ffffffffffffffffffffffffffffffffffffffff1673ffffffffffffffffffffffffffffffffffffffff16141561054e5760018361054b9190611731565b92505b808061055990611848565b9150506104c0565b5060008267ffffffffffffffff8111156105a4577f4e487b7100000000000000000000000000000000000000000000000000000000600052604160045260246000fd5b6040519080825280602002602001820160405280156105dd57816020015b6105ca6111e2565b8152602001906001900390816105c25790505b50905060005b84811015610839573373ffffffffffffffffffffffffffffffffffffffff16600360006001846106139190611731565b815260200190815260200160002060040160009054906101000a900473ffffffffffffffffffffffffffffffffffffffff1673ffffffffffffffffffffffffffffffffffffffff1614156108265760006001826106709190611731565b90506000600360008381526020019081526020016000209050806040518060e0016040529081600082015481526020016001820160009054906101000a900473ffffffffffffffffffffffffffffffffffffffff1673ffffffffffffffffffffffffffffffffffffffff1673ffffffffffffffffffffffffffffffffffffffff168152602001600282015481526020016003820160009054906101000a900473ffffffffffffffffffffffffffffffffffffffff1673ffffffffffffffffffffffffffffffffffffffff1673ffffffffffffffffffffffffffffffffffffffff1681526020016004820160009054906101000a900473ffffffffffffffffffffffffffffffffffffffff1673ffffffffffffffffffffffffffffffffffffffff1673ffffffffffffffffffffffffffffffffffffffff168152602001600582015481526020016006820160009054906101000a900460ff161515151581525050848681518110610809577f4e487b7100000000000000000000000000000000000000000000000000000000600052603260045260246000fd5b60200260200101819052506001856108219190611731565b945050505b808061083190611848565b9150506105e3565b508094505050505090565b6000806108516002611004565b61085b6001611004565b6108659190611787565b90508091505090565b600260005414156108b4576040517f08c379a00000000000000000000000000000000000000000000000000000000081526004016108ab90611681565b60405180910390fd5b6002600081905550600081116108ff576040517f08c379a00000000000000000000000000000000000000000000000000000000081526004016108f6906116a1565b60405180910390fd5b61090960016110ab565b60006109156001611004565b90506040518060e001604052808281526020018573ffffffffffffffffffffffffffffffffffffffff1681526020018481526020013373ffffffffffffffffffffffffffffffffffffffff168152602001600073ffffffffffffffffffffffffffffffffffffffff16815260200183815260200160001515815250600360008381526020019081526020016000206000820151816000015560208201518160010160006101000a81548173ffffffffffffffffffffffffffffffffffffffff021916908373ffffffffffffffffffffffffffffffffffffffff1602179055506040820151816002015560608201518160030160006101000a81548173ffffffffffffffffffffffffffffffffffffffff021916908373ffffffffffffffffffffffffffffffffffffffff16021790555060808201518160040160006101000a81548173ffffffffffffffffffffffffffffffffffffffff021916908373ffffffffffffffffffffffffffffffffffffffff16021790555060a0820151816005015560c08201518160060160006101000a81548160ff0219169083151502179055509050508373ffffffffffffffffffffffffffffffffffffffff166323b872dd3330866040518463ffffffff1660e01b8152600401610af693929190611573565b600060405180830381600087803b158015610b1057600080fd5b505af1158015610b24573d6000803e3d6000fd5b50505050828473ffffffffffffffffffffffffffffffffffffffff16827f045dfa01dcba2b36aba1d3dc4a874f4b0c5d2fbeb8d2c4b34a7d88c8d8f929d1336000876000604051610b7894939291906115aa565b60405180910390a4506001600081905550505050565b60026000541415610bd4576040517f08c379a0000000000000000000000000000000000000000000000000000000008152600401610bcb90611681565b60405180910390fd5b600260008190555060008211610c1f576040517f08c379a0000000000000000000000000000000000000000000000000000000008152600401610c16906116a1565b60405180910390fd5b610c5e6040518060400160405280600781526020017f50524943453a2000000000000000000000000000000000000000000000000000815250836110c1565b60006003600083815260200190815260200160002060040160006101000a81548173ffffffffffffffffffffffffffffffffffffffff021916908373ffffffffffffffffffffffffffffffffffffffff16021790555081600360008381526020019081526020016000206005018190555060006003600083815260200190815260200160002060060160006101000a81548160ff021916908315150217905550336003600083815260200190815260200160002060030160006101000a81548173ffffffffffffffffffffffffffffffffffffffff021916908373ffffffffffffffffffffffffffffffffffffffff160217905550610d5d600261115d565b60016000819055505050565b600080610d766001611004565b90506000805b82811015610e1d573373ffffffffffffffffffffffffffffffffffffffff1660036000600184610dac9190611731565b815260200190815260200160002060040160009054906101000a900473ffffffffffffffffffffffffffffffffffffffff1673ffffffffffffffffffffffffffffffffffffffff161415610e0a57600182610e079190611731565b91505b8080610e1590611848565b915050610d7c565b50809250505090565b60026000541415610e6c576040517f08c379a0000000000000000000000000000000000000000000000000000000008152600401610e6390611681565b60405180910390fd5b6002600081905550600060036000838152602001908152602001600020600501549050600060036000848152602001908152602001600020600201549050813414610eec576040517f08c379a0000000000000000000000000000000000000000000000000000000008152600401610ee390611661565b60405180910390fd5b6003600082815260200190815260200160002060030160009054906101000a900473ffffffffffffffffffffffffffffffffffffffff1673ffffffffffffffffffffffffffffffffffffffff166108fc349081150290604051600060405180830381858888f19350505050158015610f68573d6000803e3d6000fd5b50336003600083815260200190815260200160002060040160006101000a81548173ffffffffffffffffffffffffffffffffffffffff021916908373ffffffffffffffffffffffffffffffffffffffff16021790555060016003600083815260200190815260200160002060060160006101000a81548160ff021916908315150217905550610ff760026110ab565b5050600160008190555050565b600081600001549050919050565b6110a88160405160240161102691906116c1565b6040516020818303038152906040527ff5b1bba9000000000000000000000000000000000000000000000000000000007bffffffffffffffffffffffffffffffffffffffffffffffffffffffff19166020820180517bffffffffffffffffffffffffffffffffffffffffffffffffffffffff83818316178352505050506111b9565b50565b6001816000016000828254019250508190555050565b61115982826040516024016110d7929190611611565b6040516020818303038152906040527f9710a9d0000000000000000000000000000000000000000000000000000000007bffffffffffffffffffffffffffffffffffffffffffffffffffffffff19166020820180517bffffffffffffffffffffffffffffffffffffffffffffffffffffffff83818316178352505050506111b9565b5050565b600081600001549050600081116111a9576040517f08c379a00000000000000000000000000000000000000000000000000000000081526004016111a090611641565b60405180910390fd5b6001810382600001819055505050565b60008151905060006a636f6e736f6c652e6c6f679050602083016000808483855afa5050505050565b6040518060e0016040528060008152602001600073ffffffffffffffffffffffffffffffffffffffff16815260200160008152602001600073ffffffffffffffffffffffffffffffffffffffff168152602001600073ffffffffffffffffffffffffffffffffffffffff168152602001600081526020016000151581525090565b6000813590506112728161199b565b92915050565b600081359050611287816119b2565b92915050565b6000806000606084860312156112a257600080fd5b60006112b086828701611263565b93505060206112c186828701611278565b92505060406112d286828701611278565b9150509250925092565b6000602082840312156112ee57600080fd5b60006112fc84828501611278565b91505092915050565b6000806040838503121561131857600080fd5b600061132685828601611278565b925050602061133785828601611278565b9150509250929050565b600061134d83836114c7565b60e08301905092915050565b611362816117cd565b82525050565b611371816117bb565b82525050565b611380816117bb565b82525050565b6000611391826116ec565b61139b818561170f565b93506113a6836116dc565b8060005b838110156113d75781516113be8882611341565b97506113c983611702565b9250506001810190506113aa565b5085935050505092915050565b6113ed816117df565b82525050565b6113fc816117df565b82525050565b600061140d826116f7565b6114178185611720565b9350611427818560208601611815565b611430816118c0565b840191505092915050565b6000611448601b83611720565b9150611453826118d1565b602082019050919050565b600061146b604083611720565b9150611476826118fa565b604082019050919050565b600061148e601f83611720565b915061149982611949565b602082019050919050565b60006114b1601c83611720565b91506114bc82611972565b602082019050919050565b60e0820160008201516114dd6000850182611555565b5060208201516114f06020850182611368565b5060408201516115036040850182611555565b5060608201516115166060850182611359565b5060808201516115296080850182611359565b5060a082015161153c60a0850182611555565b5060c082015161154f60c08501826113e4565b50505050565b61155e8161180b565b82525050565b61156d8161180b565b82525050565b60006060820190506115886000830186611377565b6115956020830185611377565b6115a26040830184611564565b949350505050565b60006080820190506115bf6000830187611377565b6115cc6020830186611377565b6115d96040830185611564565b6115e660608301846113f3565b95945050505050565b600060208201905081810360008301526116098184611386565b905092915050565b6000604082019050818103600083015261162b8185611402565b905061163a6020830184611564565b9392505050565b6000602082019050818103600083015261165a8161143b565b9050919050565b6000602082019050818103600083015261167a8161145e565b9050919050565b6000602082019050818103600083015261169a81611481565b9050919050565b600060208201905081810360008301526116ba816114a4565b9050919050565b60006020820190506116d66000830184611564565b92915050565b6000819050602082019050919050565b600081519050919050565b600081519050919050565b6000602082019050919050565b600082825260208201905092915050565b600082825260208201905092915050565b600061173c8261180b565b91506117478361180b565b9250827fffffffffffffffffffffffffffffffffffffffffffffffffffffffffffffffff0382111561177c5761177b611891565b5b828201905092915050565b60006117928261180b565b915061179d8361180b565b9250828210156117b0576117af611891565b5b828203905092915050565b60006117c6826117eb565b9050919050565b60006117d8826117eb565b9050919050565b60008115159050919050565b600073ffffffffffffffffffffffffffffffffffffffff82169050919050565b6000819050919050565b60005b83811015611833578082015181840152602081019050611818565b83811115611842576000848401525b50505050565b60006118538261180b565b91507fffffffffffffffffffffffffffffffffffffffffffffffffffffffffffffffff82141561188657611885611891565b5b600182019050919050565b7f4e487b7100000000000000000000000000000000000000000000000000000000600052601160045260246000fd5b6000601f19601f8301169050919050565b7f436f756e7465723a2064656372656d656e74206f766572666c6f770000000000600082015250565b7f506c65617365207375626d6974207468652061736b696e67207072696365206960008201527f6e206f7264657220746f20636f6d706c65746520746865207075726368617365602082015250565b7f5265656e7472616e637947756172643a207265656e7472616e742063616c6c00600082015250565b7f5072696365206d757374206265206174206c6561737420312077656900000000600082015250565b6119a4816117bb565b81146119af57600080fd5b50565b6119bb8161180b565b81146119c657600080fd5b5056fea264697066735822122019525f387bbd943698a16a52d005204f3e5669926d416bd6683d9942505eea0c64736f6c63430008030033",
  "linkReferences": {},
  "deployedLinkReferences": {}
}