{
  "_format": "hh-sol-artifact-1",
  "contractName": "NFTMarket",
  "sourceName": "contracts/Market.sol",
  "abi": [
    {
      "anonymous": false,
      "inputs": [
        {
          "indexed": true,
          "internalType": "uint256",
          "name": "itemId",
          "type": "uint256"
        },
        {
          "indexed": true,
          "internalType": "address",
          "name": "nftContract",
          "type": "address"
        },
        {
          "indexed": true,
          "internalType": "uint256",
          "name": "tokenId",
          "type": "uint256"
        },
        {
          "indexed": false,
          "internalType": "address",
          "name": "seller",
          "type": "address"
        },
        {
          "indexed": false,
          "internalType": "address",
          "name": "owner",
          "type": "address"
        },
        {
          "indexed": false,
          "internalType": "uint256",
          "name": "price",
          "type": "uint256"
        },
        {
          "indexed": false,
          "internalType": "bool",
          "name": "sold",
          "type": "bool"
        }
      ],
      "name": "MarketItemCreated",
      "type": "event"
    },
    {
      "inputs": [
        {
          "internalType": "address",
          "name": "nftContract",
          "type": "address"
        },
        {
          "internalType": "uint256",
          "name": "tokenId",
          "type": "uint256"
        },
        {
          "internalType": "uint256",
          "name": "price",
          "type": "uint256"
        }
      ],
      "name": "createMarketItem",
      "outputs": [],
      "stateMutability": "payable",
      "type": "function"
    },
    {
      "inputs": [
        {
          "internalType": "uint256",
          "name": "itemId",
          "type": "uint256"
        }
      ],
      "name": "createMarketSale",
      "outputs": [],
      "stateMutability": "payable",
      "type": "function"
    },
    {
      "inputs": [],
      "name": "fetchMarketItemCount",
      "outputs": [
        {
          "internalType": "uint256",
          "name": "",
          "type": "uint256"
        }
      ],
      "stateMutability": "view",
      "type": "function"
    },
    {
      "inputs": [],
      "name": "fetchMarketItems",
      "outputs": [
        {
          "components": [
            {
              "internalType": "uint256",
              "name": "itemId",
              "type": "uint256"
            },
            {
              "internalType": "address",
              "name": "nftContract",
              "type": "address"
            },
            {
              "internalType": "uint256",
              "name": "tokenId",
              "type": "uint256"
            },
            {
              "internalType": "address payable",
              "name": "seller",
              "type": "address"
            },
            {
              "internalType": "address payable",
              "name": "owner",
              "type": "address"
            },
            {
              "internalType": "uint256",
              "name": "price",
              "type": "uint256"
            },
            {
              "internalType": "bool",
              "name": "sold",
              "type": "bool"
            }
          ],
          "internalType": "struct NFTMarket.MarketItem[]",
          "name": "",
          "type": "tuple[]"
        }
      ],
      "stateMutability": "view",
      "type": "function"
    },
    {
      "inputs": [],
      "name": "fetchMyNFTs",
      "outputs": [
        {
          "components": [
            {
              "internalType": "uint256",
              "name": "itemId",
              "type": "uint256"
            },
            {
              "internalType": "address",
              "name": "nftContract",
              "type": "address"
            },
            {
              "internalType": "uint256",
              "name": "tokenId",
              "type": "uint256"
            },
            {
              "internalType": "address payable",
              "name": "seller",
              "type": "address"
            },
            {
              "internalType": "address payable",
              "name": "owner",
              "type": "address"
            },
            {
              "internalType": "uint256",
              "name": "price",
              "type": "uint256"
            },
            {
              "internalType": "bool",
              "name": "sold",
              "type": "bool"
            }
          ],
          "internalType": "struct NFTMarket.MarketItem[]",
          "name": "",
          "type": "tuple[]"
        }
      ],
      "stateMutability": "view",
      "type": "function"
    },
    {
      "inputs": [],
      "name": "fetchOwnedNFTCount",
      "outputs": [
        {
          "internalType": "uint256",
          "name": "",
          "type": "uint256"
        }
      ],
      "stateMutability": "view",
      "type": "function"
    },
    {
      "inputs": [
        {
          "internalType": "uint256",
          "name": "price",
          "type": "uint256"
        },
        {
          "internalType": "uint256",
          "name": "tokenId",
          "type": "uint256"
        }
      ],
      "name": "relistItem",
      "outputs": [],
      "stateMutability": "payable",
      "type": "function"
    }
  ],
  "bytecode": "0x608060405234801561001057600080fd5b50600160008190555061178b806100286000396000f3fe6080604052600436106100705760003560e01c806358eb2df51161004e57806358eb2df5146100f657806375ad1b1214610112578063941d72921461012e578063be9af5361461015957610070565b80630f08efe014610075578063202e3740146100a0578063354c565c146100cb575b600080fd5b34801561008157600080fd5b5061008a610175565b60405161009791906113fa565b60405180910390f35b3480156100ac57600080fd5b506100b561048b565b6040516100c291906113fa565b60405180910390f35b3480156100d757600080fd5b506100e0610825565b6040516100ed919061149c565b60405180910390f35b610110600480360381019061010b91906110d1565b61084f565b005b61012c60048036038101906101279190611149565b610b6f565b005b34801561013a57600080fd5b50610143610d0b565b604051610150919061149c565b60405180910390f35b610173600480360381019061016e9190611120565b610dc8565b005b606060006101836001610fa6565b905060006101916002610fa6565b61019b6001610fa6565b6101a59190611557565b90506000808267ffffffffffffffff8111156101ea577f4e487b7100000000000000000000000000000000000000000000000000000000600052604160045260246000fd5b60405190808252806020026020018201604052801561022357816020015b610210611026565b8152602001906001900390816102085790505b50905060005b8481101561048057600073ffffffffffffffffffffffffffffffffffffffff166003600060018461025a9190611501565b815260200190815260200160002060040160009054906101000a900473ffffffffffffffffffffffffffffffffffffffff1673ffffffffffffffffffffffffffffffffffffffff16141561046d5760006001826102b79190611501565b90506000600360008381526020019081526020016000209050806040518060e0016040529081600082015481526020016001820160009054906101000a900473ffffffffffffffffffffffffffffffffffffffff1673ffffffffffffffffffffffffffffffffffffffff1673ffffffffffffffffffffffffffffffffffffffff168152602001600282015481526020016003820160009054906101000a900473ffffffffffffffffffffffffffffffffffffffff1673ffffffffffffffffffffffffffffffffffffffff1673ffffffffffffffffffffffffffffffffffffffff1681526020016004820160009054906101000a900473ffffffffffffffffffffffffffffffffffffffff1673ffffffffffffffffffffffffffffffffffffffff1673ffffffffffffffffffffffffffffffffffffffff168152602001600582015481526020016006820160009054906101000a900460ff161515151581525050848681518110610450577f4e487b7100000000000000000000000000000000000000000000000000000000600052603260045260246000fd5b60200260200101819052506001856104689190611501565b945050505b8080610478906115e5565b915050610229565b508094505050505090565b606060006104996001610fa6565b905060008060005b83811015610542573373ffffffffffffffffffffffffffffffffffffffff16600360006001846104d19190611501565b815260200190815260200160002060040160009054906101000a900473ffffffffffffffffffffffffffffffffffffffff1673ffffffffffffffffffffffffffffffffffffffff16141561052f5760018361052c9190611501565b92505b808061053a906115e5565b9150506104a1565b5060008267ffffffffffffffff811115610585577f4e487b7100000000000000000000000000000000000000000000000000000000600052604160045260246000fd5b6040519080825280602002602001820160405280156105be57816020015b6105ab611026565b8152602001906001900390816105a35790505b50905060005b8481101561081a573373ffffffffffffffffffffffffffffffffffffffff16600360006001846105f49190611501565b815260200190815260200160002060040160009054906101000a900473ffffffffffffffffffffffffffffffffffffffff1673ffffffffffffffffffffffffffffffffffffffff1614156108075760006001826106519190611501565b90506000600360008381526020019081526020016000209050806040518060e0016040529081600082015481526020016001820160009054906101000a900473ffffffffffffffffffffffffffffffffffffffff1673ffffffffffffffffffffffffffffffffffffffff1673ffffffffffffffffffffffffffffffffffffffff168152602001600282015481526020016003820160009054906101000a900473ffffffffffffffffffffffffffffffffffffffff1673ffffffffffffffffffffffffffffffffffffffff1673ffffffffffffffffffffffffffffffffffffffff1681526020016004820160009054906101000a900473ffffffffffffffffffffffffffffffffffffffff1673ffffffffffffffffffffffffffffffffffffffff1673ffffffffffffffffffffffffffffffffffffffff168152602001600582015481526020016006820160009054906101000a900460ff1615151515815250508486815181106107ea577f4e487b7100000000000000000000000000000000000000000000000000000000600052603260045260246000fd5b60200260200101819052506001856108029190611501565b945050505b8080610812906115e5565b9150506105c4565b508094505050505090565b6000806108326002610fa6565b61083c6001610fa6565b6108469190611557565b90508091505090565b60026000541415610895576040517f08c379a000000000000000000000000000000000000000000000000000000000815260040161088c9061145c565b60405180910390fd5b6002600081905550600081116108e0576040517f08c379a00000000000000000000000000000000000000000000000000000000081526004016108d79061147c565b60405180910390fd5b6108ea6001610fb4565b60006108f66001610fa6565b90506040518060e001604052808281526020018573ffffffffffffffffffffffffffffffffffffffff1681526020018481526020013373ffffffffffffffffffffffffffffffffffffffff168152602001600073ffffffffffffffffffffffffffffffffffffffff16815260200183815260200160001515815250600360008381526020019081526020016000206000820151816000015560208201518160010160006101000a81548173ffffffffffffffffffffffffffffffffffffffff021916908373ffffffffffffffffffffffffffffffffffffffff1602179055506040820151816002015560608201518160030160006101000a81548173ffffffffffffffffffffffffffffffffffffffff021916908373ffffffffffffffffffffffffffffffffffffffff16021790555060808201518160040160006101000a81548173ffffffffffffffffffffffffffffffffffffffff021916908373ffffffffffffffffffffffffffffffffffffffff16021790555060a0820151816005015560c08201518160060160006101000a81548160ff0219169083151502179055509050508373ffffffffffffffffffffffffffffffffffffffff166323b872dd3330866040518463ffffffff1660e01b8152600401610ad79392919061137e565b600060405180830381600087803b158015610af157600080fd5b505af1158015610b05573d6000803e3d6000fd5b50505050828473ffffffffffffffffffffffffffffffffffffffff16827f045dfa01dcba2b36aba1d3dc4a874f4b0c5d2fbeb8d2c4b34a7d88c8d8f929d1336000876000604051610b5994939291906113b5565b60405180910390a4506001600081905550505050565b60026000541415610bb5576040517f08c379a0000000000000000000000000000000000000000000000000000000008152600401610bac9061145c565b60405180910390fd5b600260008190555060008211610c00576040517f08c379a0000000000000000000000000000000000000000000000000000000008152600401610bf79061147c565b60405180910390fd5b60006003600083815260200190815260200160002060040160006101000a81548173ffffffffffffffffffffffffffffffffffffffff021916908373ffffffffffffffffffffffffffffffffffffffff16021790555081600360008381526020019081526020016000206005018190555060006003600083815260200190815260200160002060060160006101000a81548160ff021916908315150217905550336003600083815260200190815260200160002060030160006101000a81548173ffffffffffffffffffffffffffffffffffffffff021916908373ffffffffffffffffffffffffffffffffffffffff160217905550610cff6002610fca565b60016000819055505050565b600080610d186001610fa6565b90506000805b82811015610dbf573373ffffffffffffffffffffffffffffffffffffffff1660036000600184610d4e9190611501565b815260200190815260200160002060040160009054906101000a900473ffffffffffffffffffffffffffffffffffffffff1673ffffffffffffffffffffffffffffffffffffffff161415610dac57600182610da99190611501565b91505b8080610db7906115e5565b915050610d1e565b50809250505090565b60026000541415610e0e576040517f08c379a0000000000000000000000000000000000000000000000000000000008152600401610e059061145c565b60405180910390fd5b6002600081905550600060036000838152602001908152602001600020600501549050600060036000848152602001908152602001600020600201549050813414610e8e576040517f08c379a0000000000000000000000000000000000000000000000000000000008152600401610e859061143c565b60405180910390fd5b6003600082815260200190815260200160002060030160009054906101000a900473ffffffffffffffffffffffffffffffffffffffff1673ffffffffffffffffffffffffffffffffffffffff166108fc349081150290604051600060405180830381858888f19350505050158015610f0a573d6000803e3d6000fd5b50336003600083815260200190815260200160002060040160006101000a81548173ffffffffffffffffffffffffffffffffffffffff021916908373ffffffffffffffffffffffffffffffffffffffff16021790555060016003600083815260200190815260200160002060060160006101000a81548160ff021916908315150217905550610f996002610fb4565b5050600160008190555050565b600081600001549050919050565b6001816000016000828254019250508190555050565b60008160000154905060008111611016576040517f08c379a000000000000000000000000000000000000000000000000000000000815260040161100d9061141c565b60405180910390fd5b6001810382600001819055505050565b6040518060e0016040528060008152602001600073ffffffffffffffffffffffffffffffffffffffff16815260200160008152602001600073ffffffffffffffffffffffffffffffffffffffff168152602001600073ffffffffffffffffffffffffffffffffffffffff168152602001600081526020016000151581525090565b6000813590506110b681611727565b92915050565b6000813590506110cb8161173e565b92915050565b6000806000606084860312156110e657600080fd5b60006110f4868287016110a7565b9350506020611105868287016110bc565b9250506040611116868287016110bc565b9150509250925092565b60006020828403121561113257600080fd5b6000611140848285016110bc565b91505092915050565b6000806040838503121561115c57600080fd5b600061116a858286016110bc565b925050602061117b858286016110bc565b9150509250929050565b600061119183836112d2565b60e08301905092915050565b6111a68161159d565b82525050565b6111b58161158b565b82525050565b6111c48161158b565b82525050565b60006111d5826114c7565b6111df81856114df565b93506111ea836114b7565b8060005b8381101561121b5781516112028882611185565b975061120d836114d2565b9250506001810190506111ee565b5085935050505092915050565b611231816115af565b82525050565b611240816115af565b82525050565b6000611253601b836114f0565b915061125e8261165d565b602082019050919050565b60006112766040836114f0565b915061128182611686565b604082019050919050565b6000611299601f836114f0565b91506112a4826116d5565b602082019050919050565b60006112bc601c836114f0565b91506112c7826116fe565b602082019050919050565b60e0820160008201516112e86000850182611360565b5060208201516112fb60208501826111ac565b50604082015161130e6040850182611360565b506060820151611321606085018261119d565b506080820151611334608085018261119d565b5060a082015161134760a0850182611360565b5060c082015161135a60c0850182611228565b50505050565b611369816115db565b82525050565b611378816115db565b82525050565b600060608201905061139360008301866111bb565b6113a060208301856111bb565b6113ad604083018461136f565b949350505050565b60006080820190506113ca60008301876111bb565b6113d760208301866111bb565b6113e4604083018561136f565b6113f16060830184611237565b95945050505050565b6000602082019050818103600083015261141481846111ca565b905092915050565b6000602082019050818103600083015261143581611246565b9050919050565b6000602082019050818103600083015261145581611269565b9050919050565b600060208201905081810360008301526114758161128c565b9050919050565b60006020820190508181036000830152611495816112af565b9050919050565b60006020820190506114b1600083018461136f565b92915050565b6000819050602082019050919050565b600081519050919050565b6000602082019050919050565b600082825260208201905092915050565b600082825260208201905092915050565b600061150c826115db565b9150611517836115db565b9250827fffffffffffffffffffffffffffffffffffffffffffffffffffffffffffffffff0382111561154c5761154b61162e565b5b828201905092915050565b6000611562826115db565b915061156d836115db565b9250828210156115805761157f61162e565b5b828203905092915050565b6000611596826115bb565b9050919050565b60006115a8826115bb565b9050919050565b60008115159050919050565b600073ffffffffffffffffffffffffffffffffffffffff82169050919050565b6000819050919050565b60006115f0826115db565b91507fffffffffffffffffffffffffffffffffffffffffffffffffffffffffffffffff8214156116235761162261162e565b5b600182019050919050565b7f4e487b7100000000000000000000000000000000000000000000000000000000600052601160045260246000fd5b7f436f756e7465723a2064656372656d656e74206f766572666c6f770000000000600082015250565b7f506c65617365207375626d6974207468652061736b696e67207072696365206960008201527f6e206f7264657220746f20636f6d706c65746520746865207075726368617365602082015250565b7f5265656e7472616e637947756172643a207265656e7472616e742063616c6c00600082015250565b7f5072696365206d757374206265206174206c6561737420312077656900000000600082015250565b6117308161158b565b811461173b57600080fd5b50565b611747816115db565b811461175257600080fd5b5056fea26469706673582212206cfb8a1cce0e4ffce0408794842ce1d168c3268efe06f1edf36499a4974107c664736f6c63430008030033",
  "linkReferences": {},
  "deployedLinkReferences": {}
}