{
  "_format": "hh-sol-artifact-1",
  "contractName": "NFTMarket",
  "sourceName": "contracts/Market.sol",
  "abi": [
    {
      "anonymous": false,
      "inputs": [
        {
          "indexed": true,
          "internalType": "uint256",
          "name": "itemId",
          "type": "uint256"
        },
        {
          "indexed": true,
          "internalType": "address",
          "name": "nftContract",
          "type": "address"
        },
        {
          "indexed": true,
          "internalType": "uint256",
          "name": "tokenId",
          "type": "uint256"
        },
        {
          "indexed": false,
          "internalType": "address",
          "name": "seller",
          "type": "address"
        },
        {
          "indexed": false,
          "internalType": "address",
          "name": "owner",
          "type": "address"
        },
        {
          "indexed": false,
          "internalType": "uint256",
          "name": "price",
          "type": "uint256"
        },
        {
          "indexed": false,
          "internalType": "bool",
          "name": "sold",
          "type": "bool"
        }
      ],
      "name": "MarketItemCreated",
      "type": "event"
    },
    {
      "inputs": [
        {
          "internalType": "address",
          "name": "nftContract",
          "type": "address"
        },
        {
          "internalType": "uint256",
          "name": "tokenId",
          "type": "uint256"
        },
        {
          "internalType": "uint256",
          "name": "price",
          "type": "uint256"
        }
      ],
      "name": "createMarketItem",
      "outputs": [],
      "stateMutability": "payable",
      "type": "function"
    },
    {
      "inputs": [
        {
          "internalType": "address",
          "name": "nftContract",
          "type": "address"
        },
        {
          "internalType": "uint256",
          "name": "itemId",
          "type": "uint256"
        }
      ],
      "name": "createMarketSale",
      "outputs": [],
      "stateMutability": "payable",
      "type": "function"
    },
    {
      "inputs": [],
      "name": "fetchItemsCreated",
      "outputs": [
        {
          "components": [
            {
              "internalType": "uint256",
              "name": "itemId",
              "type": "uint256"
            },
            {
              "internalType": "address",
              "name": "nftContract",
              "type": "address"
            },
            {
              "internalType": "uint256",
              "name": "tokenId",
              "type": "uint256"
            },
            {
              "internalType": "address payable",
              "name": "seller",
              "type": "address"
            },
            {
              "internalType": "address payable",
              "name": "owner",
              "type": "address"
            },
            {
              "internalType": "uint256",
              "name": "price",
              "type": "uint256"
            },
            {
              "internalType": "bool",
              "name": "sold",
              "type": "bool"
            }
          ],
          "internalType": "struct NFTMarket.MarketItem[]",
          "name": "",
          "type": "tuple[]"
        }
      ],
      "stateMutability": "view",
      "type": "function"
    },
    {
      "inputs": [],
      "name": "fetchMarketItemCount",
      "outputs": [
        {
          "internalType": "uint256",
          "name": "",
          "type": "uint256"
        }
      ],
      "stateMutability": "view",
      "type": "function"
    },
    {
      "inputs": [],
      "name": "fetchMarketItems",
      "outputs": [
        {
          "components": [
            {
              "internalType": "uint256",
              "name": "itemId",
              "type": "uint256"
            },
            {
              "internalType": "address",
              "name": "nftContract",
              "type": "address"
            },
            {
              "internalType": "uint256",
              "name": "tokenId",
              "type": "uint256"
            },
            {
              "internalType": "address payable",
              "name": "seller",
              "type": "address"
            },
            {
              "internalType": "address payable",
              "name": "owner",
              "type": "address"
            },
            {
              "internalType": "uint256",
              "name": "price",
              "type": "uint256"
            },
            {
              "internalType": "bool",
              "name": "sold",
              "type": "bool"
            }
          ],
          "internalType": "struct NFTMarket.MarketItem[]",
          "name": "",
          "type": "tuple[]"
        }
      ],
      "stateMutability": "view",
      "type": "function"
    },
    {
      "inputs": [],
      "name": "fetchMyNFTs",
      "outputs": [
        {
          "components": [
            {
              "internalType": "uint256",
              "name": "itemId",
              "type": "uint256"
            },
            {
              "internalType": "address",
              "name": "nftContract",
              "type": "address"
            },
            {
              "internalType": "uint256",
              "name": "tokenId",
              "type": "uint256"
            },
            {
              "internalType": "address payable",
              "name": "seller",
              "type": "address"
            },
            {
              "internalType": "address payable",
              "name": "owner",
              "type": "address"
            },
            {
              "internalType": "uint256",
              "name": "price",
              "type": "uint256"
            },
            {
              "internalType": "bool",
              "name": "sold",
              "type": "bool"
            }
          ],
          "internalType": "struct NFTMarket.MarketItem[]",
          "name": "",
          "type": "tuple[]"
        }
      ],
      "stateMutability": "view",
      "type": "function"
    },
    {
      "inputs": [],
      "name": "fetchOwnedNFTCount",
      "outputs": [
        {
          "internalType": "uint256",
          "name": "",
          "type": "uint256"
        }
      ],
      "stateMutability": "view",
      "type": "function"
    },
    {
      "inputs": [
        {
          "internalType": "address",
          "name": "nftContract",
          "type": "address"
        },
        {
          "internalType": "uint256",
          "name": "tokenId",
          "type": "uint256"
        }
      ],
      "name": "relistItem",
      "outputs": [],
      "stateMutability": "payable",
      "type": "function"
    }
  ],
  "bytecode": "0x608060405234801561001057600080fd5b506001600081905550611ad5806100286000396000f3fe60806040526004361061007b5760003560e01c806372d22dfe1161004e57806372d22dfe1461011d578063941d729214610139578063c23b139e14610164578063f064c32e146101805761007b565b80630f08efe014610080578063202e3740146100ab578063354c565c146100d657806358eb2df514610101575b600080fd5b34801561008c57600080fd5b506100956101ab565b6040516100a29190611744565b60405180910390f35b3480156100b757600080fd5b506100c06104c1565b6040516100cd9190611744565b60405180910390f35b3480156100e257600080fd5b506100eb61085b565b6040516100f891906117e6565b60405180910390f35b61011b60048036038101906101169190611480565b610885565b005b61013760048036038101906101329190611444565b610ba5565b005b34801561014557600080fd5b5061014e610ce3565b60405161015b91906117e6565b60405180910390f35b61017e60048036038101906101799190611444565b610da0565b005b34801561018c57600080fd5b50610195610f7f565b6040516101a29190611744565b60405180910390f35b606060006101b96001611319565b905060006101c76002611319565b6101d16001611319565b6101db91906118a1565b90506000808267ffffffffffffffff811115610220577f4e487b7100000000000000000000000000000000000000000000000000000000600052604160045260246000fd5b60405190808252806020026020018201604052801561025957816020015b610246611399565b81526020019060019003908161023e5790505b50905060005b848110156104b657600073ffffffffffffffffffffffffffffffffffffffff1660036000600184610290919061184b565b815260200190815260200160002060040160009054906101000a900473ffffffffffffffffffffffffffffffffffffffff1673ffffffffffffffffffffffffffffffffffffffff1614156104a35760006001826102ed919061184b565b90506000600360008381526020019081526020016000209050806040518060e0016040529081600082015481526020016001820160009054906101000a900473ffffffffffffffffffffffffffffffffffffffff1673ffffffffffffffffffffffffffffffffffffffff1673ffffffffffffffffffffffffffffffffffffffff168152602001600282015481526020016003820160009054906101000a900473ffffffffffffffffffffffffffffffffffffffff1673ffffffffffffffffffffffffffffffffffffffff1673ffffffffffffffffffffffffffffffffffffffff1681526020016004820160009054906101000a900473ffffffffffffffffffffffffffffffffffffffff1673ffffffffffffffffffffffffffffffffffffffff1673ffffffffffffffffffffffffffffffffffffffff168152602001600582015481526020016006820160009054906101000a900460ff161515151581525050848681518110610486577f4e487b7100000000000000000000000000000000000000000000000000000000600052603260045260246000fd5b602002602001018190525060018561049e919061184b565b945050505b80806104ae9061192f565b91505061025f565b508094505050505090565b606060006104cf6001611319565b905060008060005b83811015610578573373ffffffffffffffffffffffffffffffffffffffff1660036000600184610507919061184b565b815260200190815260200160002060040160009054906101000a900473ffffffffffffffffffffffffffffffffffffffff1673ffffffffffffffffffffffffffffffffffffffff16141561056557600183610562919061184b565b92505b80806105709061192f565b9150506104d7565b5060008267ffffffffffffffff8111156105bb577f4e487b7100000000000000000000000000000000000000000000000000000000600052604160045260246000fd5b6040519080825280602002602001820160405280156105f457816020015b6105e1611399565b8152602001906001900390816105d95790505b50905060005b84811015610850573373ffffffffffffffffffffffffffffffffffffffff166003600060018461062a919061184b565b815260200190815260200160002060040160009054906101000a900473ffffffffffffffffffffffffffffffffffffffff1673ffffffffffffffffffffffffffffffffffffffff16141561083d576000600182610687919061184b565b90506000600360008381526020019081526020016000209050806040518060e0016040529081600082015481526020016001820160009054906101000a900473ffffffffffffffffffffffffffffffffffffffff1673ffffffffffffffffffffffffffffffffffffffff1673ffffffffffffffffffffffffffffffffffffffff168152602001600282015481526020016003820160009054906101000a900473ffffffffffffffffffffffffffffffffffffffff1673ffffffffffffffffffffffffffffffffffffffff1673ffffffffffffffffffffffffffffffffffffffff1681526020016004820160009054906101000a900473ffffffffffffffffffffffffffffffffffffffff1673ffffffffffffffffffffffffffffffffffffffff1673ffffffffffffffffffffffffffffffffffffffff168152602001600582015481526020016006820160009054906101000a900460ff161515151581525050848681518110610820577f4e487b7100000000000000000000000000000000000000000000000000000000600052603260045260246000fd5b6020026020010181905250600185610838919061184b565b945050505b80806108489061192f565b9150506105fa565b508094505050505090565b6000806108686002611319565b6108726001611319565b61087c91906118a1565b90508091505090565b600260005414156108cb576040517f08c379a00000000000000000000000000000000000000000000000000000000081526004016108c2906117a6565b60405180910390fd5b600260008190555060008111610916576040517f08c379a000000000000000000000000000000000000000000000000000000000815260040161090d906117c6565b60405180910390fd5b6109206001611327565b600061092c6001611319565b90506040518060e001604052808281526020018573ffffffffffffffffffffffffffffffffffffffff1681526020018481526020013373ffffffffffffffffffffffffffffffffffffffff168152602001600073ffffffffffffffffffffffffffffffffffffffff16815260200183815260200160001515815250600360008381526020019081526020016000206000820151816000015560208201518160010160006101000a81548173ffffffffffffffffffffffffffffffffffffffff021916908373ffffffffffffffffffffffffffffffffffffffff1602179055506040820151816002015560608201518160030160006101000a81548173ffffffffffffffffffffffffffffffffffffffff021916908373ffffffffffffffffffffffffffffffffffffffff16021790555060808201518160040160006101000a81548173ffffffffffffffffffffffffffffffffffffffff021916908373ffffffffffffffffffffffffffffffffffffffff16021790555060a0820151816005015560c08201518160060160006101000a81548160ff0219169083151502179055509050508373ffffffffffffffffffffffffffffffffffffffff166323b872dd3330866040518463ffffffff1660e01b8152600401610b0d939291906116c8565b600060405180830381600087803b158015610b2757600080fd5b505af1158015610b3b573d6000803e3d6000fd5b50505050828473ffffffffffffffffffffffffffffffffffffffff16827f045dfa01dcba2b36aba1d3dc4a874f4b0c5d2fbeb8d2c4b34a7d88c8d8f929d1336000876000604051610b8f94939291906116ff565b60405180910390a4506001600081905550505050565b60026000541415610beb576040517f08c379a0000000000000000000000000000000000000000000000000000000008152600401610be2906117a6565b60405180910390fd5b600260008190555060006003600083815260200190815260200160002060040160006101000a81548173ffffffffffffffffffffffffffffffffffffffff021916908373ffffffffffffffffffffffffffffffffffffffff16021790555060006003600083815260200190815260200160002060060160006101000a81548160ff021916908315150217905550336003600083815260200190815260200160002060030160006101000a81548173ffffffffffffffffffffffffffffffffffffffff021916908373ffffffffffffffffffffffffffffffffffffffff160217905550610cd7600261133d565b60016000819055505050565b600080610cf06001611319565b90506000805b82811015610d97573373ffffffffffffffffffffffffffffffffffffffff1660036000600184610d26919061184b565b815260200190815260200160002060040160009054906101000a900473ffffffffffffffffffffffffffffffffffffffff1673ffffffffffffffffffffffffffffffffffffffff161415610d8457600182610d81919061184b565b91505b8080610d8f9061192f565b915050610cf6565b50809250505090565b60026000541415610de6576040517f08c379a0000000000000000000000000000000000000000000000000000000008152600401610ddd906117a6565b60405180910390fd5b6002600081905550600060036000838152602001908152602001600020600501549050600060036000848152602001908152602001600020600201549050813414610e66576040517f08c379a0000000000000000000000000000000000000000000000000000000008152600401610e5d90611786565b60405180910390fd5b6003600084815260200190815260200160002060030160009054906101000a900473ffffffffffffffffffffffffffffffffffffffff1673ffffffffffffffffffffffffffffffffffffffff166108fc349081150290604051600060405180830381858888f19350505050158015610ee2573d6000803e3d6000fd5b50336003600085815260200190815260200160002060040160006101000a81548173ffffffffffffffffffffffffffffffffffffffff021916908373ffffffffffffffffffffffffffffffffffffffff16021790555060016003600085815260200190815260200160002060060160006101000a81548160ff021916908315150217905550610f716002611327565b505060016000819055505050565b60606000610f8d6001611319565b905060008060005b83811015611036573373ffffffffffffffffffffffffffffffffffffffff1660036000600184610fc5919061184b565b815260200190815260200160002060030160009054906101000a900473ffffffffffffffffffffffffffffffffffffffff1673ffffffffffffffffffffffffffffffffffffffff16141561102357600183611020919061184b565b92505b808061102e9061192f565b915050610f95565b5060008267ffffffffffffffff811115611079577f4e487b7100000000000000000000000000000000000000000000000000000000600052604160045260246000fd5b6040519080825280602002602001820160405280156110b257816020015b61109f611399565b8152602001906001900390816110975790505b50905060005b8481101561130e573373ffffffffffffffffffffffffffffffffffffffff16600360006001846110e8919061184b565b815260200190815260200160002060030160009054906101000a900473ffffffffffffffffffffffffffffffffffffffff1673ffffffffffffffffffffffffffffffffffffffff1614156112fb576000600182611145919061184b565b90506000600360008381526020019081526020016000209050806040518060e0016040529081600082015481526020016001820160009054906101000a900473ffffffffffffffffffffffffffffffffffffffff1673ffffffffffffffffffffffffffffffffffffffff1673ffffffffffffffffffffffffffffffffffffffff168152602001600282015481526020016003820160009054906101000a900473ffffffffffffffffffffffffffffffffffffffff1673ffffffffffffffffffffffffffffffffffffffff1673ffffffffffffffffffffffffffffffffffffffff1681526020016004820160009054906101000a900473ffffffffffffffffffffffffffffffffffffffff1673ffffffffffffffffffffffffffffffffffffffff1673ffffffffffffffffffffffffffffffffffffffff168152602001600582015481526020016006820160009054906101000a900460ff1615151515815250508486815181106112de577f4e487b7100000000000000000000000000000000000000000000000000000000600052603260045260246000fd5b60200260200101819052506001856112f6919061184b565b945050505b80806113069061192f565b9150506110b8565b508094505050505090565b600081600001549050919050565b6001816000016000828254019250508190555050565b60008160000154905060008111611389576040517f08c379a000000000000000000000000000000000000000000000000000000000815260040161138090611766565b60405180910390fd5b6001810382600001819055505050565b6040518060e0016040528060008152602001600073ffffffffffffffffffffffffffffffffffffffff16815260200160008152602001600073ffffffffffffffffffffffffffffffffffffffff168152602001600073ffffffffffffffffffffffffffffffffffffffff168152602001600081526020016000151581525090565b60008135905061142981611a71565b92915050565b60008135905061143e81611a88565b92915050565b6000806040838503121561145757600080fd5b60006114658582860161141a565b92505060206114768582860161142f565b9150509250929050565b60008060006060848603121561149557600080fd5b60006114a38682870161141a565b93505060206114b48682870161142f565b92505060406114c58682870161142f565b9150509250925092565b60006114db838361161c565b60e08301905092915050565b6114f0816118e7565b82525050565b6114ff816118d5565b82525050565b61150e816118d5565b82525050565b600061151f82611811565b6115298185611829565b935061153483611801565b8060005b8381101561156557815161154c88826114cf565b97506115578361181c565b925050600181019050611538565b5085935050505092915050565b61157b816118f9565b82525050565b61158a816118f9565b82525050565b600061159d601b8361183a565b91506115a8826119a7565b602082019050919050565b60006115c060408361183a565b91506115cb826119d0565b604082019050919050565b60006115e3601f8361183a565b91506115ee82611a1f565b602082019050919050565b6000611606601c8361183a565b915061161182611a48565b602082019050919050565b60e08201600082015161163260008501826116aa565b50602082015161164560208501826114f6565b50604082015161165860408501826116aa565b50606082015161166b60608501826114e7565b50608082015161167e60808501826114e7565b5060a082015161169160a08501826116aa565b5060c08201516116a460c0850182611572565b50505050565b6116b381611925565b82525050565b6116c281611925565b82525050565b60006060820190506116dd6000830186611505565b6116ea6020830185611505565b6116f760408301846116b9565b949350505050565b60006080820190506117146000830187611505565b6117216020830186611505565b61172e60408301856116b9565b61173b6060830184611581565b95945050505050565b6000602082019050818103600083015261175e8184611514565b905092915050565b6000602082019050818103600083015261177f81611590565b9050919050565b6000602082019050818103600083015261179f816115b3565b9050919050565b600060208201905081810360008301526117bf816115d6565b9050919050565b600060208201905081810360008301526117df816115f9565b9050919050565b60006020820190506117fb60008301846116b9565b92915050565b6000819050602082019050919050565b600081519050919050565b6000602082019050919050565b600082825260208201905092915050565b600082825260208201905092915050565b600061185682611925565b915061186183611925565b9250827fffffffffffffffffffffffffffffffffffffffffffffffffffffffffffffffff0382111561189657611895611978565b5b828201905092915050565b60006118ac82611925565b91506118b783611925565b9250828210156118ca576118c9611978565b5b828203905092915050565b60006118e082611905565b9050919050565b60006118f282611905565b9050919050565b60008115159050919050565b600073ffffffffffffffffffffffffffffffffffffffff82169050919050565b6000819050919050565b600061193a82611925565b91507fffffffffffffffffffffffffffffffffffffffffffffffffffffffffffffffff82141561196d5761196c611978565b5b600182019050919050565b7f4e487b7100000000000000000000000000000000000000000000000000000000600052601160045260246000fd5b7f436f756e7465723a2064656372656d656e74206f766572666c6f770000000000600082015250565b7f506c65617365207375626d6974207468652061736b696e67207072696365206960008201527f6e206f7264657220746f20636f6d706c65746520746865207075726368617365602082015250565b7f5265656e7472616e637947756172643a207265656e7472616e742063616c6c00600082015250565b7f5072696365206d757374206265206174206c6561737420312077656900000000600082015250565b611a7a816118d5565b8114611a8557600080fd5b50565b611a9181611925565b8114611a9c57600080fd5b5056fea26469706673582212209ad66dbe30c19f38d5a07a0a106119afbf02bf1c674d1798c45558c5a18ab3e464736f6c63430008030033",
  "linkReferences": {},
  "deployedLinkReferences": {}
}