{
  "_format": "hh-sol-artifact-1",
  "contractName": "NFTMarket",
  "sourceName": "contracts/Market.sol",
  "abi": [
    {
      "anonymous": false,
      "inputs": [
        {
          "indexed": true,
          "internalType": "uint256",
          "name": "itemId",
          "type": "uint256"
        },
        {
          "indexed": true,
          "internalType": "address",
          "name": "nftContract",
          "type": "address"
        },
        {
          "indexed": true,
          "internalType": "uint256",
          "name": "tokenId",
          "type": "uint256"
        },
        {
          "indexed": false,
          "internalType": "address",
          "name": "seller",
          "type": "address"
        },
        {
          "indexed": false,
          "internalType": "address",
          "name": "owner",
          "type": "address"
        },
        {
          "indexed": false,
          "internalType": "uint256",
          "name": "price",
          "type": "uint256"
        },
        {
          "indexed": false,
          "internalType": "bool",
          "name": "sold",
          "type": "bool"
        }
      ],
      "name": "MarketItemCreated",
      "type": "event"
    },
    {
      "inputs": [
        {
          "internalType": "address",
          "name": "nftContract",
          "type": "address"
        },
        {
          "internalType": "uint256",
          "name": "tokenId",
          "type": "uint256"
        },
        {
          "internalType": "uint256",
          "name": "price",
          "type": "uint256"
        }
      ],
      "name": "createMarketItem",
      "outputs": [],
      "stateMutability": "payable",
      "type": "function"
    },
    {
      "inputs": [
        {
          "internalType": "address",
          "name": "nftContract",
          "type": "address"
        },
        {
          "internalType": "uint256",
          "name": "itemId",
          "type": "uint256"
        }
      ],
      "name": "createMarketSale",
      "outputs": [],
      "stateMutability": "payable",
      "type": "function"
    },
    {
      "inputs": [],
      "name": "fetchItemsCreated",
      "outputs": [
        {
          "components": [
            {
              "internalType": "uint256",
              "name": "itemId",
              "type": "uint256"
            },
            {
              "internalType": "address",
              "name": "nftContract",
              "type": "address"
            },
            {
              "internalType": "uint256",
              "name": "tokenId",
              "type": "uint256"
            },
            {
              "internalType": "address payable",
              "name": "seller",
              "type": "address"
            },
            {
              "internalType": "address payable",
              "name": "owner",
              "type": "address"
            },
            {
              "internalType": "uint256",
              "name": "price",
              "type": "uint256"
            },
            {
              "internalType": "bool",
              "name": "sold",
              "type": "bool"
            }
          ],
          "internalType": "struct NFTMarket.MarketItem[]",
          "name": "",
          "type": "tuple[]"
        }
      ],
      "stateMutability": "view",
      "type": "function"
    },
    {
      "inputs": [],
      "name": "fetchMarketItemCount",
      "outputs": [
        {
          "internalType": "uint256",
          "name": "",
          "type": "uint256"
        }
      ],
      "stateMutability": "view",
      "type": "function"
    },
    {
      "inputs": [],
      "name": "fetchMarketItems",
      "outputs": [
        {
          "components": [
            {
              "internalType": "uint256",
              "name": "itemId",
              "type": "uint256"
            },
            {
              "internalType": "address",
              "name": "nftContract",
              "type": "address"
            },
            {
              "internalType": "uint256",
              "name": "tokenId",
              "type": "uint256"
            },
            {
              "internalType": "address payable",
              "name": "seller",
              "type": "address"
            },
            {
              "internalType": "address payable",
              "name": "owner",
              "type": "address"
            },
            {
              "internalType": "uint256",
              "name": "price",
              "type": "uint256"
            },
            {
              "internalType": "bool",
              "name": "sold",
              "type": "bool"
            }
          ],
          "internalType": "struct NFTMarket.MarketItem[]",
          "name": "",
          "type": "tuple[]"
        }
      ],
      "stateMutability": "view",
      "type": "function"
    },
    {
      "inputs": [],
      "name": "fetchMyNFTs",
      "outputs": [
        {
          "components": [
            {
              "internalType": "uint256",
              "name": "itemId",
              "type": "uint256"
            },
            {
              "internalType": "address",
              "name": "nftContract",
              "type": "address"
            },
            {
              "internalType": "uint256",
              "name": "tokenId",
              "type": "uint256"
            },
            {
              "internalType": "address payable",
              "name": "seller",
              "type": "address"
            },
            {
              "internalType": "address payable",
              "name": "owner",
              "type": "address"
            },
            {
              "internalType": "uint256",
              "name": "price",
              "type": "uint256"
            },
            {
              "internalType": "bool",
              "name": "sold",
              "type": "bool"
            }
          ],
          "internalType": "struct NFTMarket.MarketItem[]",
          "name": "",
          "type": "tuple[]"
        }
      ],
      "stateMutability": "view",
      "type": "function"
    },
    {
      "inputs": [],
      "name": "fetchOwnedNFTCount",
      "outputs": [
        {
          "internalType": "uint256",
          "name": "",
          "type": "uint256"
        }
      ],
      "stateMutability": "view",
      "type": "function"
    },
    {
      "inputs": [
        {
          "internalType": "uint256",
          "name": "tokenId",
          "type": "uint256"
        }
      ],
      "name": "relistItem",
      "outputs": [],
      "stateMutability": "payable",
      "type": "function"
    }
  ],
  "bytecode": "0x608060405234801561001057600080fd5b506001600081905550611b6c806100286000396000f3fe60806040526004361061007b5760003560e01c806358eb2df51161004e57806358eb2df51461011d578063941d729214610139578063c23b139e14610164578063f064c32e146101805761007b565b80630f08efe0146100805780631f0b9e77146100ab578063202e3740146100c7578063354c565c146100f2575b600080fd5b34801561008c57600080fd5b506100956101ab565b6040516100a291906117db565b60405180910390f35b6100c560048036038101906100c0919061153d565b6104c1565b005b3480156100d357600080fd5b506100dc6105fe565b6040516100e991906117db565b60405180910390f35b3480156100fe57600080fd5b50610107610998565b604051610114919061187d565b60405180910390f35b610137600480360381019061013291906114ee565b6109c2565b005b34801561014557600080fd5b5061014e610ce2565b60405161015b919061187d565b60405180910390f35b61017e600480360381019061017991906114b2565b610d9f565b005b34801561018c57600080fd5b50610195610fed565b6040516101a291906117db565b60405180910390f35b606060006101b96001611387565b905060006101c76002611387565b6101d16001611387565b6101db9190611938565b90506000808267ffffffffffffffff811115610220577f4e487b7100000000000000000000000000000000000000000000000000000000600052604160045260246000fd5b60405190808252806020026020018201604052801561025957816020015b610246611407565b81526020019060019003908161023e5790505b50905060005b848110156104b657600073ffffffffffffffffffffffffffffffffffffffff166003600060018461029091906118e2565b815260200190815260200160002060040160009054906101000a900473ffffffffffffffffffffffffffffffffffffffff1673ffffffffffffffffffffffffffffffffffffffff1614156104a35760006001826102ed91906118e2565b90506000600360008381526020019081526020016000209050806040518060e0016040529081600082015481526020016001820160009054906101000a900473ffffffffffffffffffffffffffffffffffffffff1673ffffffffffffffffffffffffffffffffffffffff1673ffffffffffffffffffffffffffffffffffffffff168152602001600282015481526020016003820160009054906101000a900473ffffffffffffffffffffffffffffffffffffffff1673ffffffffffffffffffffffffffffffffffffffff1673ffffffffffffffffffffffffffffffffffffffff1681526020016004820160009054906101000a900473ffffffffffffffffffffffffffffffffffffffff1673ffffffffffffffffffffffffffffffffffffffff1673ffffffffffffffffffffffffffffffffffffffff168152602001600582015481526020016006820160009054906101000a900460ff161515151581525050848681518110610486577f4e487b7100000000000000000000000000000000000000000000000000000000600052603260045260246000fd5b602002602001018190525060018561049e91906118e2565b945050505b80806104ae906119c6565b91505061025f565b508094505050505090565b60026000541415610507576040517f08c379a00000000000000000000000000000000000000000000000000000000081526004016104fe9061183d565b60405180910390fd5b600260008190555060006003600083815260200190815260200160002060040160006101000a81548173ffffffffffffffffffffffffffffffffffffffff021916908373ffffffffffffffffffffffffffffffffffffffff16021790555060006003600083815260200190815260200160002060060160006101000a81548160ff021916908315150217905550336003600083815260200190815260200160002060030160006101000a81548173ffffffffffffffffffffffffffffffffffffffff021916908373ffffffffffffffffffffffffffffffffffffffff1602179055506105f36002611395565b600160008190555050565b6060600061060c6001611387565b905060008060005b838110156106b5573373ffffffffffffffffffffffffffffffffffffffff166003600060018461064491906118e2565b815260200190815260200160002060040160009054906101000a900473ffffffffffffffffffffffffffffffffffffffff1673ffffffffffffffffffffffffffffffffffffffff1614156106a25760018361069f91906118e2565b92505b80806106ad906119c6565b915050610614565b5060008267ffffffffffffffff8111156106f8577f4e487b7100000000000000000000000000000000000000000000000000000000600052604160045260246000fd5b60405190808252806020026020018201604052801561073157816020015b61071e611407565b8152602001906001900390816107165790505b50905060005b8481101561098d573373ffffffffffffffffffffffffffffffffffffffff166003600060018461076791906118e2565b815260200190815260200160002060040160009054906101000a900473ffffffffffffffffffffffffffffffffffffffff1673ffffffffffffffffffffffffffffffffffffffff16141561097a5760006001826107c491906118e2565b90506000600360008381526020019081526020016000209050806040518060e0016040529081600082015481526020016001820160009054906101000a900473ffffffffffffffffffffffffffffffffffffffff1673ffffffffffffffffffffffffffffffffffffffff1673ffffffffffffffffffffffffffffffffffffffff168152602001600282015481526020016003820160009054906101000a900473ffffffffffffffffffffffffffffffffffffffff1673ffffffffffffffffffffffffffffffffffffffff1673ffffffffffffffffffffffffffffffffffffffff1681526020016004820160009054906101000a900473ffffffffffffffffffffffffffffffffffffffff1673ffffffffffffffffffffffffffffffffffffffff1673ffffffffffffffffffffffffffffffffffffffff168152602001600582015481526020016006820160009054906101000a900460ff16151515158152505084868151811061095d577f4e487b7100000000000000000000000000000000000000000000000000000000600052603260045260246000fd5b602002602001018190525060018561097591906118e2565b945050505b8080610985906119c6565b915050610737565b508094505050505090565b6000806109a56002611387565b6109af6001611387565b6109b99190611938565b90508091505090565b60026000541415610a08576040517f08c379a00000000000000000000000000000000000000000000000000000000081526004016109ff9061183d565b60405180910390fd5b600260008190555060008111610a53576040517f08c379a0000000000000000000000000000000000000000000000000000000008152600401610a4a9061185d565b60405180910390fd5b610a5d60016113f1565b6000610a696001611387565b90506040518060e001604052808281526020018573ffffffffffffffffffffffffffffffffffffffff1681526020018481526020013373ffffffffffffffffffffffffffffffffffffffff168152602001600073ffffffffffffffffffffffffffffffffffffffff16815260200183815260200160001515815250600360008381526020019081526020016000206000820151816000015560208201518160010160006101000a81548173ffffffffffffffffffffffffffffffffffffffff021916908373ffffffffffffffffffffffffffffffffffffffff1602179055506040820151816002015560608201518160030160006101000a81548173ffffffffffffffffffffffffffffffffffffffff021916908373ffffffffffffffffffffffffffffffffffffffff16021790555060808201518160040160006101000a81548173ffffffffffffffffffffffffffffffffffffffff021916908373ffffffffffffffffffffffffffffffffffffffff16021790555060a0820151816005015560c08201518160060160006101000a81548160ff0219169083151502179055509050508373ffffffffffffffffffffffffffffffffffffffff166323b872dd3330866040518463ffffffff1660e01b8152600401610c4a9392919061175f565b600060405180830381600087803b158015610c6457600080fd5b505af1158015610c78573d6000803e3d6000fd5b50505050828473ffffffffffffffffffffffffffffffffffffffff16827f045dfa01dcba2b36aba1d3dc4a874f4b0c5d2fbeb8d2c4b34a7d88c8d8f929d1336000876000604051610ccc9493929190611796565b60405180910390a4506001600081905550505050565b600080610cef6001611387565b90506000805b82811015610d96573373ffffffffffffffffffffffffffffffffffffffff1660036000600184610d2591906118e2565b815260200190815260200160002060040160009054906101000a900473ffffffffffffffffffffffffffffffffffffffff1673ffffffffffffffffffffffffffffffffffffffff161415610d8357600182610d8091906118e2565b91505b8080610d8e906119c6565b915050610cf5565b50809250505090565b60026000541415610de5576040517f08c379a0000000000000000000000000000000000000000000000000000000008152600401610ddc9061183d565b60405180910390fd5b6002600081905550600060036000838152602001908152602001600020600501549050600060036000848152602001908152602001600020600201549050813414610e65576040517f08c379a0000000000000000000000000000000000000000000000000000000008152600401610e5c9061181d565b60405180910390fd5b6003600084815260200190815260200160002060030160009054906101000a900473ffffffffffffffffffffffffffffffffffffffff1673ffffffffffffffffffffffffffffffffffffffff166108fc349081150290604051600060405180830381858888f19350505050158015610ee1573d6000803e3d6000fd5b508373ffffffffffffffffffffffffffffffffffffffff166323b872dd3033846040518463ffffffff1660e01b8152600401610f1f9392919061175f565b600060405180830381600087803b158015610f3957600080fd5b505af1158015610f4d573d6000803e3d6000fd5b50505050336003600085815260200190815260200160002060040160006101000a81548173ffffffffffffffffffffffffffffffffffffffff021916908373ffffffffffffffffffffffffffffffffffffffff16021790555060016003600085815260200190815260200160002060060160006101000a81548160ff021916908315150217905550610fdf60026113f1565b505060016000819055505050565b60606000610ffb6001611387565b905060008060005b838110156110a4573373ffffffffffffffffffffffffffffffffffffffff166003600060018461103391906118e2565b815260200190815260200160002060030160009054906101000a900473ffffffffffffffffffffffffffffffffffffffff1673ffffffffffffffffffffffffffffffffffffffff1614156110915760018361108e91906118e2565b92505b808061109c906119c6565b915050611003565b5060008267ffffffffffffffff8111156110e7577f4e487b7100000000000000000000000000000000000000000000000000000000600052604160045260246000fd5b60405190808252806020026020018201604052801561112057816020015b61110d611407565b8152602001906001900390816111055790505b50905060005b8481101561137c573373ffffffffffffffffffffffffffffffffffffffff166003600060018461115691906118e2565b815260200190815260200160002060030160009054906101000a900473ffffffffffffffffffffffffffffffffffffffff1673ffffffffffffffffffffffffffffffffffffffff1614156113695760006001826111b391906118e2565b90506000600360008381526020019081526020016000209050806040518060e0016040529081600082015481526020016001820160009054906101000a900473ffffffffffffffffffffffffffffffffffffffff1673ffffffffffffffffffffffffffffffffffffffff1673ffffffffffffffffffffffffffffffffffffffff168152602001600282015481526020016003820160009054906101000a900473ffffffffffffffffffffffffffffffffffffffff1673ffffffffffffffffffffffffffffffffffffffff1673ffffffffffffffffffffffffffffffffffffffff1681526020016004820160009054906101000a900473ffffffffffffffffffffffffffffffffffffffff1673ffffffffffffffffffffffffffffffffffffffff1673ffffffffffffffffffffffffffffffffffffffff168152602001600582015481526020016006820160009054906101000a900460ff16151515158152505084868151811061134c577f4e487b7100000000000000000000000000000000000000000000000000000000600052603260045260246000fd5b602002602001018190525060018561136491906118e2565b945050505b8080611374906119c6565b915050611126565b508094505050505090565b600081600001549050919050565b600081600001549050600081116113e1576040517f08c379a00000000000000000000000000000000000000000000000000000000081526004016113d8906117fd565b60405180910390fd5b6001810382600001819055505050565b6001816000016000828254019250508190555050565b6040518060e0016040528060008152602001600073ffffffffffffffffffffffffffffffffffffffff16815260200160008152602001600073ffffffffffffffffffffffffffffffffffffffff168152602001600073ffffffffffffffffffffffffffffffffffffffff168152602001600081526020016000151581525090565b60008135905061149781611b08565b92915050565b6000813590506114ac81611b1f565b92915050565b600080604083850312156114c557600080fd5b60006114d385828601611488565b92505060206114e48582860161149d565b9150509250929050565b60008060006060848603121561150357600080fd5b600061151186828701611488565b93505060206115228682870161149d565b92505060406115338682870161149d565b9150509250925092565b60006020828403121561154f57600080fd5b600061155d8482850161149d565b91505092915050565b600061157283836116b3565b60e08301905092915050565b6115878161197e565b82525050565b6115968161196c565b82525050565b6115a58161196c565b82525050565b60006115b6826118a8565b6115c081856118c0565b93506115cb83611898565b8060005b838110156115fc5781516115e38882611566565b97506115ee836118b3565b9250506001810190506115cf565b5085935050505092915050565b61161281611990565b82525050565b61162181611990565b82525050565b6000611634601b836118d1565b915061163f82611a3e565b602082019050919050565b60006116576040836118d1565b915061166282611a67565b604082019050919050565b600061167a601f836118d1565b915061168582611ab6565b602082019050919050565b600061169d601c836118d1565b91506116a882611adf565b602082019050919050565b60e0820160008201516116c96000850182611741565b5060208201516116dc602085018261158d565b5060408201516116ef6040850182611741565b506060820151611702606085018261157e565b506080820151611715608085018261157e565b5060a082015161172860a0850182611741565b5060c082015161173b60c0850182611609565b50505050565b61174a816119bc565b82525050565b611759816119bc565b82525050565b6000606082019050611774600083018661159c565b611781602083018561159c565b61178e6040830184611750565b949350505050565b60006080820190506117ab600083018761159c565b6117b8602083018661159c565b6117c56040830185611750565b6117d26060830184611618565b95945050505050565b600060208201905081810360008301526117f581846115ab565b905092915050565b6000602082019050818103600083015261181681611627565b9050919050565b600060208201905081810360008301526118368161164a565b9050919050565b600060208201905081810360008301526118568161166d565b9050919050565b6000602082019050818103600083015261187681611690565b9050919050565b60006020820190506118926000830184611750565b92915050565b6000819050602082019050919050565b600081519050919050565b6000602082019050919050565b600082825260208201905092915050565b600082825260208201905092915050565b60006118ed826119bc565b91506118f8836119bc565b9250827fffffffffffffffffffffffffffffffffffffffffffffffffffffffffffffffff0382111561192d5761192c611a0f565b5b828201905092915050565b6000611943826119bc565b915061194e836119bc565b92508282101561196157611960611a0f565b5b828203905092915050565b60006119778261199c565b9050919050565b60006119898261199c565b9050919050565b60008115159050919050565b600073ffffffffffffffffffffffffffffffffffffffff82169050919050565b6000819050919050565b60006119d1826119bc565b91507fffffffffffffffffffffffffffffffffffffffffffffffffffffffffffffffff821415611a0457611a03611a0f565b5b600182019050919050565b7f4e487b7100000000000000000000000000000000000000000000000000000000600052601160045260246000fd5b7f436f756e7465723a2064656372656d656e74206f766572666c6f770000000000600082015250565b7f506c65617365207375626d6974207468652061736b696e67207072696365206960008201527f6e206f7264657220746f20636f6d706c65746520746865207075726368617365602082015250565b7f5265656e7472616e637947756172643a207265656e7472616e742063616c6c00600082015250565b7f5072696365206d757374206265206174206c6561737420312077656900000000600082015250565b611b118161196c565b8114611b1c57600080fd5b50565b611b28816119bc565b8114611b3357600080fd5b5056fea2646970667358221220cb95fd72a15133cb86854c305d3616789593e7425b14130aa2ef5ad37fb71e5564736f6c63430008030033",
  "linkReferences": {},
  "deployedLinkReferences": {}
}