{
  "_format": "hh-sol-artifact-1",
  "contractName": "NFTMarket",
  "sourceName": "contracts/Market.sol",
  "abi": [
    {
      "inputs": [],
      "stateMutability": "nonpayable",
      "type": "constructor"
    },
    {
      "anonymous": false,
      "inputs": [
        {
          "indexed": true,
          "internalType": "uint256",
          "name": "itemId",
          "type": "uint256"
        },
        {
          "indexed": true,
          "internalType": "address",
          "name": "nftContract",
          "type": "address"
        },
        {
          "indexed": true,
          "internalType": "uint256",
          "name": "tokenId",
          "type": "uint256"
        },
        {
          "indexed": false,
          "internalType": "address",
          "name": "seller",
          "type": "address"
        },
        {
          "indexed": false,
          "internalType": "address",
          "name": "owner",
          "type": "address"
        },
        {
          "indexed": false,
          "internalType": "uint256",
          "name": "price",
          "type": "uint256"
        },
        {
          "indexed": false,
          "internalType": "bool",
          "name": "sold",
          "type": "bool"
        }
      ],
      "name": "MarketItemCreated",
      "type": "event"
    },
    {
      "inputs": [
        {
          "internalType": "address",
          "name": "nftContract",
          "type": "address"
        },
        {
          "internalType": "uint256",
          "name": "tokenId",
          "type": "uint256"
        },
        {
          "internalType": "uint256",
          "name": "price",
          "type": "uint256"
        }
      ],
      "name": "createMarketItem",
      "outputs": [],
      "stateMutability": "payable",
      "type": "function"
    },
    {
      "inputs": [
        {
          "internalType": "address",
          "name": "nftContract",
          "type": "address"
        },
        {
          "internalType": "uint256",
          "name": "itemId",
          "type": "uint256"
        }
      ],
      "name": "createMarketSale",
      "outputs": [],
      "stateMutability": "payable",
      "type": "function"
    },
    {
      "inputs": [],
      "name": "fetchItemsCreated",
      "outputs": [
        {
          "components": [
            {
              "internalType": "uint256",
              "name": "itemId",
              "type": "uint256"
            },
            {
              "internalType": "address",
              "name": "nftContract",
              "type": "address"
            },
            {
              "internalType": "uint256",
              "name": "tokenId",
              "type": "uint256"
            },
            {
              "internalType": "address payable",
              "name": "seller",
              "type": "address"
            },
            {
              "internalType": "address payable",
              "name": "owner",
              "type": "address"
            },
            {
              "internalType": "uint256",
              "name": "price",
              "type": "uint256"
            },
            {
              "internalType": "bool",
              "name": "sold",
              "type": "bool"
            }
          ],
          "internalType": "struct NFTMarket.MarketItem[]",
          "name": "",
          "type": "tuple[]"
        }
      ],
      "stateMutability": "view",
      "type": "function"
    },
    {
      "inputs": [],
      "name": "fetchMarketItems",
      "outputs": [
        {
          "components": [
            {
              "internalType": "uint256",
              "name": "itemId",
              "type": "uint256"
            },
            {
              "internalType": "address",
              "name": "nftContract",
              "type": "address"
            },
            {
              "internalType": "uint256",
              "name": "tokenId",
              "type": "uint256"
            },
            {
              "internalType": "address payable",
              "name": "seller",
              "type": "address"
            },
            {
              "internalType": "address payable",
              "name": "owner",
              "type": "address"
            },
            {
              "internalType": "uint256",
              "name": "price",
              "type": "uint256"
            },
            {
              "internalType": "bool",
              "name": "sold",
              "type": "bool"
            }
          ],
          "internalType": "struct NFTMarket.MarketItem[]",
          "name": "",
          "type": "tuple[]"
        }
      ],
      "stateMutability": "view",
      "type": "function"
    },
    {
      "inputs": [],
      "name": "fetchMyNFTs",
      "outputs": [
        {
          "components": [
            {
              "internalType": "uint256",
              "name": "itemId",
              "type": "uint256"
            },
            {
              "internalType": "address",
              "name": "nftContract",
              "type": "address"
            },
            {
              "internalType": "uint256",
              "name": "tokenId",
              "type": "uint256"
            },
            {
              "internalType": "address payable",
              "name": "seller",
              "type": "address"
            },
            {
              "internalType": "address payable",
              "name": "owner",
              "type": "address"
            },
            {
              "internalType": "uint256",
              "name": "price",
              "type": "uint256"
            },
            {
              "internalType": "bool",
              "name": "sold",
              "type": "bool"
            }
          ],
          "internalType": "struct NFTMarket.MarketItem[]",
          "name": "",
          "type": "tuple[]"
        }
      ],
      "stateMutability": "view",
      "type": "function"
    },
    {
      "inputs": [],
      "name": "getListingPrice",
      "outputs": [
        {
          "internalType": "uint256",
          "name": "",
          "type": "uint256"
        }
      ],
      "stateMutability": "view",
      "type": "function"
    }
  ],
  "bytecode": "0x60806040526658d15e1762800060045534801561001b57600080fd5b50600160008190555033600360006101000a81548173ffffffffffffffffffffffffffffffffffffffff021916908373ffffffffffffffffffffffffffffffffffffffff160217905550611af1806100746000396000f3fe6080604052600436106100555760003560e01c80630f08efe01461005a57806312e8558514610085578063202e3740146100b057806358eb2df5146100db578063c23b139e146100f7578063f064c32e14610113575b600080fd5b34801561006657600080fd5b5061006f61013e565b60405161007c91906116bb565b60405180910390f35b34801561009157600080fd5b5061009a610454565b6040516100a7919061178d565b60405180910390f35b3480156100bc57600080fd5b506100c561045e565b6040516100d291906116bb565b60405180910390f35b6100f560048036038101906100f091906113be565b610837565b005b610111600480360381019061010c9190611382565b610b9b565b005b34801561011f57600080fd5b50610128610e54565b60405161013591906116bb565b60405180910390f35b6060600061014c60016111ee565b9050600061015a60026111ee565b61016460016111ee565b61016e9190611853565b90506000808267ffffffffffffffff8111156101b3577f4e487b7100000000000000000000000000000000000000000000000000000000600052604160045260246000fd5b6040519080825280602002602001820160405280156101ec57816020015b6101d96112d7565b8152602001906001900390816101d15790505b50905060005b8481101561044957600073ffffffffffffffffffffffffffffffffffffffff166005600060018461022391906117fd565b815260200190815260200160002060040160009054906101000a900473ffffffffffffffffffffffffffffffffffffffff1673ffffffffffffffffffffffffffffffffffffffff16141561043657600060018261028091906117fd565b90506000600560008381526020019081526020016000209050806040518060e0016040529081600082015481526020016001820160009054906101000a900473ffffffffffffffffffffffffffffffffffffffff1673ffffffffffffffffffffffffffffffffffffffff1673ffffffffffffffffffffffffffffffffffffffff168152602001600282015481526020016003820160009054906101000a900473ffffffffffffffffffffffffffffffffffffffff1673ffffffffffffffffffffffffffffffffffffffff1673ffffffffffffffffffffffffffffffffffffffff1681526020016004820160009054906101000a900473ffffffffffffffffffffffffffffffffffffffff1673ffffffffffffffffffffffffffffffffffffffff1673ffffffffffffffffffffffffffffffffffffffff168152602001600582015481526020016006820160009054906101000a900460ff161515151581525050848681518110610419577f4e487b7100000000000000000000000000000000000000000000000000000000600052603260045260246000fd5b602002602001018190525060018561043191906117fd565b945050505b808061044190611914565b9150506101f2565b508094505050505090565b6000600454905090565b6060600061046c60016111ee565b905060008060005b83811015610515573373ffffffffffffffffffffffffffffffffffffffff16600560006001846104a491906117fd565b815260200190815260200160002060040160009054906101000a900473ffffffffffffffffffffffffffffffffffffffff1673ffffffffffffffffffffffffffffffffffffffff161415610502576001836104ff91906117fd565b92505b808061050d90611914565b915050610474565b506105556040518060400160405280600481526020017f7468697300000000000000000000000000000000000000000000000000000000815250836111fc565b60008267ffffffffffffffff811115610597577f4e487b7100000000000000000000000000000000000000000000000000000000600052604160045260246000fd5b6040519080825280602002602001820160405280156105d057816020015b6105bd6112d7565b8152602001906001900390816105b55790505b50905060005b8481101561082c573373ffffffffffffffffffffffffffffffffffffffff166005600060018461060691906117fd565b815260200190815260200160002060040160009054906101000a900473ffffffffffffffffffffffffffffffffffffffff1673ffffffffffffffffffffffffffffffffffffffff16141561081957600060018261066391906117fd565b90506000600560008381526020019081526020016000209050806040518060e0016040529081600082015481526020016001820160009054906101000a900473ffffffffffffffffffffffffffffffffffffffff1673ffffffffffffffffffffffffffffffffffffffff1673ffffffffffffffffffffffffffffffffffffffff168152602001600282015481526020016003820160009054906101000a900473ffffffffffffffffffffffffffffffffffffffff1673ffffffffffffffffffffffffffffffffffffffff1673ffffffffffffffffffffffffffffffffffffffff1681526020016004820160009054906101000a900473ffffffffffffffffffffffffffffffffffffffff1673ffffffffffffffffffffffffffffffffffffffff1673ffffffffffffffffffffffffffffffffffffffff168152602001600582015481526020016006820160009054906101000a900460ff1615151515815250508486815181106107fc577f4e487b7100000000000000000000000000000000000000000000000000000000600052603260045260246000fd5b602002602001018190525060018561081491906117fd565b945050505b808061082490611914565b9150506105d6565b508094505050505090565b6002600054141561087d576040517f08c379a00000000000000000000000000000000000000000000000000000000081526004016108749061174d565b60405180910390fd5b6002600081905550600081116108c8576040517f08c379a00000000000000000000000000000000000000000000000000000000081526004016108bf9061176d565b60405180910390fd5b600454341461090c576040517f08c379a00000000000000000000000000000000000000000000000000000000081526004016109039061172d565b60405180910390fd5b6109166001611298565b600061092260016111ee565b90506040518060e001604052808281526020018573ffffffffffffffffffffffffffffffffffffffff1681526020018481526020013373ffffffffffffffffffffffffffffffffffffffff168152602001600073ffffffffffffffffffffffffffffffffffffffff16815260200183815260200160001515815250600560008381526020019081526020016000206000820151816000015560208201518160010160006101000a81548173ffffffffffffffffffffffffffffffffffffffff021916908373ffffffffffffffffffffffffffffffffffffffff1602179055506040820151816002015560608201518160030160006101000a81548173ffffffffffffffffffffffffffffffffffffffff021916908373ffffffffffffffffffffffffffffffffffffffff16021790555060808201518160040160006101000a81548173ffffffffffffffffffffffffffffffffffffffff021916908373ffffffffffffffffffffffffffffffffffffffff16021790555060a0820151816005015560c08201518160060160006101000a81548160ff0219169083151502179055509050508373ffffffffffffffffffffffffffffffffffffffff166323b872dd3330866040518463ffffffff1660e01b8152600401610b039392919061163f565b600060405180830381600087803b158015610b1d57600080fd5b505af1158015610b31573d6000803e3d6000fd5b50505050828473ffffffffffffffffffffffffffffffffffffffff16827f045dfa01dcba2b36aba1d3dc4a874f4b0c5d2fbeb8d2c4b34a7d88c8d8f929d1336000876000604051610b859493929190611676565b60405180910390a4506001600081905550505050565b60026000541415610be1576040517f08c379a0000000000000000000000000000000000000000000000000000000008152600401610bd89061174d565b60405180910390fd5b6002600081905550600060056000838152602001908152602001600020600501549050600060056000848152602001908152602001600020600201549050813414610c61576040517f08c379a0000000000000000000000000000000000000000000000000000000008152600401610c589061170d565b60405180910390fd5b6005600084815260200190815260200160002060030160009054906101000a900473ffffffffffffffffffffffffffffffffffffffff1673ffffffffffffffffffffffffffffffffffffffff166108fc349081150290604051600060405180830381858888f19350505050158015610cdd573d6000803e3d6000fd5b508373ffffffffffffffffffffffffffffffffffffffff166323b872dd3033846040518463ffffffff1660e01b8152600401610d1b9392919061163f565b600060405180830381600087803b158015610d3557600080fd5b505af1158015610d49573d6000803e3d6000fd5b50505050336005600085815260200190815260200160002060040160006101000a81548173ffffffffffffffffffffffffffffffffffffffff021916908373ffffffffffffffffffffffffffffffffffffffff16021790555060016005600085815260200190815260200160002060060160006101000a81548160ff021916908315150217905550610ddb6002611298565b600360009054906101000a900473ffffffffffffffffffffffffffffffffffffffff1673ffffffffffffffffffffffffffffffffffffffff166108fc6004549081150290604051600060405180830381858888f19350505050158015610e45573d6000803e3d6000fd5b50505060016000819055505050565b60606000610e6260016111ee565b905060008060005b83811015610f0b573373ffffffffffffffffffffffffffffffffffffffff1660056000600184610e9a91906117fd565b815260200190815260200160002060030160009054906101000a900473ffffffffffffffffffffffffffffffffffffffff1673ffffffffffffffffffffffffffffffffffffffff161415610ef857600183610ef591906117fd565b92505b8080610f0390611914565b915050610e6a565b5060008267ffffffffffffffff811115610f4e577f4e487b7100000000000000000000000000000000000000000000000000000000600052604160045260246000fd5b604051908082528060200260200182016040528015610f8757816020015b610f746112d7565b815260200190600190039081610f6c5790505b50905060005b848110156111e3573373ffffffffffffffffffffffffffffffffffffffff1660056000600184610fbd91906117fd565b815260200190815260200160002060030160009054906101000a900473ffffffffffffffffffffffffffffffffffffffff1673ffffffffffffffffffffffffffffffffffffffff1614156111d057600060018261101a91906117fd565b90506000600560008381526020019081526020016000209050806040518060e0016040529081600082015481526020016001820160009054906101000a900473ffffffffffffffffffffffffffffffffffffffff1673ffffffffffffffffffffffffffffffffffffffff1673ffffffffffffffffffffffffffffffffffffffff168152602001600282015481526020016003820160009054906101000a900473ffffffffffffffffffffffffffffffffffffffff1673ffffffffffffffffffffffffffffffffffffffff1673ffffffffffffffffffffffffffffffffffffffff1681526020016004820160009054906101000a900473ffffffffffffffffffffffffffffffffffffffff1673ffffffffffffffffffffffffffffffffffffffff1673ffffffffffffffffffffffffffffffffffffffff168152602001600582015481526020016006820160009054906101000a900460ff1615151515815250508486815181106111b3577f4e487b7100000000000000000000000000000000000000000000000000000000600052603260045260246000fd5b60200260200101819052506001856111cb91906117fd565b945050505b80806111db90611914565b915050610f8d565b508094505050505090565b600081600001549050919050565b61129482826040516024016112129291906116dd565b6040516020818303038152906040527f9710a9d0000000000000000000000000000000000000000000000000000000007bffffffffffffffffffffffffffffffffffffffffffffffffffffffff19166020820180517bffffffffffffffffffffffffffffffffffffffffffffffffffffffff83818316178352505050506112ae565b5050565b6001816000016000828254019250508190555050565b60008151905060006a636f6e736f6c652e6c6f679050602083016000808483855afa5050505050565b6040518060e0016040528060008152602001600073ffffffffffffffffffffffffffffffffffffffff16815260200160008152602001600073ffffffffffffffffffffffffffffffffffffffff168152602001600073ffffffffffffffffffffffffffffffffffffffff168152602001600081526020016000151581525090565b60008135905061136781611a8d565b92915050565b60008135905061137c81611aa4565b92915050565b6000806040838503121561139557600080fd5b60006113a385828601611358565b92505060206113b48582860161136d565b9150509250929050565b6000806000606084860312156113d357600080fd5b60006113e186828701611358565b93505060206113f28682870161136d565b92505060406114038682870161136d565b9150509250925092565b60006114198383611593565b60e08301905092915050565b61142e81611899565b82525050565b61143d81611887565b82525050565b61144c81611887565b82525050565b600061145d826117b8565b61146781856117db565b9350611472836117a8565b8060005b838110156114a357815161148a888261140d565b9750611495836117ce565b925050600181019050611476565b5085935050505092915050565b6114b9816118ab565b82525050565b6114c8816118ab565b82525050565b60006114d9826117c3565b6114e381856117ec565b93506114f38185602086016118e1565b6114fc8161198c565b840191505092915050565b60006115146040836117ec565b915061151f8261199d565b604082019050919050565b60006115376024836117ec565b9150611542826119ec565b604082019050919050565b600061155a601f836117ec565b915061156582611a3b565b602082019050919050565b600061157d601c836117ec565b915061158882611a64565b602082019050919050565b60e0820160008201516115a96000850182611621565b5060208201516115bc6020850182611434565b5060408201516115cf6040850182611621565b5060608201516115e26060850182611425565b5060808201516115f56080850182611425565b5060a082015161160860a0850182611621565b5060c082015161161b60c08501826114b0565b50505050565b61162a816118d7565b82525050565b611639816118d7565b82525050565b60006060820190506116546000830186611443565b6116616020830185611443565b61166e6040830184611630565b949350505050565b600060808201905061168b6000830187611443565b6116986020830186611443565b6116a56040830185611630565b6116b260608301846114bf565b95945050505050565b600060208201905081810360008301526116d58184611452565b905092915050565b600060408201905081810360008301526116f781856114ce565b90506117066020830184611630565b9392505050565b6000602082019050818103600083015261172681611507565b9050919050565b600060208201905081810360008301526117468161152a565b9050919050565b600060208201905081810360008301526117668161154d565b9050919050565b6000602082019050818103600083015261178681611570565b9050919050565b60006020820190506117a26000830184611630565b92915050565b6000819050602082019050919050565b600081519050919050565b600081519050919050565b6000602082019050919050565b600082825260208201905092915050565b600082825260208201905092915050565b6000611808826118d7565b9150611813836118d7565b9250827fffffffffffffffffffffffffffffffffffffffffffffffffffffffffffffffff038211156118485761184761195d565b5b828201905092915050565b600061185e826118d7565b9150611869836118d7565b92508282101561187c5761187b61195d565b5b828203905092915050565b6000611892826118b7565b9050919050565b60006118a4826118b7565b9050919050565b60008115159050919050565b600073ffffffffffffffffffffffffffffffffffffffff82169050919050565b6000819050919050565b60005b838110156118ff5780820151818401526020810190506118e4565b8381111561190e576000848401525b50505050565b600061191f826118d7565b91507fffffffffffffffffffffffffffffffffffffffffffffffffffffffffffffffff8214156119525761195161195d565b5b600182019050919050565b7f4e487b7100000000000000000000000000000000000000000000000000000000600052601160045260246000fd5b6000601f19601f8301169050919050565b7f506c65617365207375626d6974207468652061736b696e67207072696365206960008201527f6e206f7264657220746f20636f6d706c65746520746865207075726368617365602082015250565b7f5072696365206d75737420626520657175616c20746f206c697374696e67207060008201527f7269636500000000000000000000000000000000000000000000000000000000602082015250565b7f5265656e7472616e637947756172643a207265656e7472616e742063616c6c00600082015250565b7f5072696365206d757374206265206174206c6561737420312077656900000000600082015250565b611a9681611887565b8114611aa157600080fd5b50565b611aad816118d7565b8114611ab857600080fd5b5056fea26469706673582212204230c765105fe63771a6e58f91618de988dccb255132e1e94ec59608a980a0db64736f6c63430008030033",
  "linkReferences": {},
  "deployedLinkReferences": {}
}