{
  "_format": "hh-sol-artifact-1",
  "contractName": "NFTMarket",
  "sourceName": "contracts/Market.sol",
  "abi": [
    {
      "anonymous": false,
      "inputs": [
        {
          "indexed": true,
          "internalType": "uint256",
          "name": "itemId",
          "type": "uint256"
        },
        {
          "indexed": true,
          "internalType": "address",
          "name": "nftContract",
          "type": "address"
        },
        {
          "indexed": true,
          "internalType": "uint256",
          "name": "tokenId",
          "type": "uint256"
        },
        {
          "indexed": false,
          "internalType": "address",
          "name": "seller",
          "type": "address"
        },
        {
          "indexed": false,
          "internalType": "address",
          "name": "owner",
          "type": "address"
        },
        {
          "indexed": false,
          "internalType": "uint256",
          "name": "price",
          "type": "uint256"
        },
        {
          "indexed": false,
          "internalType": "bool",
          "name": "sold",
          "type": "bool"
        }
      ],
      "name": "MarketItemCreated",
      "type": "event"
    },
    {
      "inputs": [
        {
          "internalType": "address",
          "name": "nftContract",
          "type": "address"
        },
        {
          "internalType": "uint256",
          "name": "tokenId",
          "type": "uint256"
        },
        {
          "internalType": "uint256",
          "name": "price",
          "type": "uint256"
        }
      ],
      "name": "createMarketItem",
      "outputs": [],
      "stateMutability": "payable",
      "type": "function"
    },
    {
      "inputs": [
        {
          "internalType": "address",
          "name": "nftContract",
          "type": "address"
        },
        {
          "internalType": "uint256",
          "name": "itemId",
          "type": "uint256"
        }
      ],
      "name": "createMarketSale",
      "outputs": [],
      "stateMutability": "payable",
      "type": "function"
    },
    {
      "inputs": [],
      "name": "fetchItemsCreated",
      "outputs": [
        {
          "components": [
            {
              "internalType": "uint256",
              "name": "itemId",
              "type": "uint256"
            },
            {
              "internalType": "address",
              "name": "nftContract",
              "type": "address"
            },
            {
              "internalType": "uint256",
              "name": "tokenId",
              "type": "uint256"
            },
            {
              "internalType": "address payable",
              "name": "seller",
              "type": "address"
            },
            {
              "internalType": "address payable",
              "name": "owner",
              "type": "address"
            },
            {
              "internalType": "uint256",
              "name": "price",
              "type": "uint256"
            },
            {
              "internalType": "bool",
              "name": "sold",
              "type": "bool"
            }
          ],
          "internalType": "struct NFTMarket.MarketItem[]",
          "name": "",
          "type": "tuple[]"
        }
      ],
      "stateMutability": "view",
      "type": "function"
    },
    {
      "inputs": [],
      "name": "fetchMarketItems",
      "outputs": [
        {
          "components": [
            {
              "internalType": "uint256",
              "name": "itemId",
              "type": "uint256"
            },
            {
              "internalType": "address",
              "name": "nftContract",
              "type": "address"
            },
            {
              "internalType": "uint256",
              "name": "tokenId",
              "type": "uint256"
            },
            {
              "internalType": "address payable",
              "name": "seller",
              "type": "address"
            },
            {
              "internalType": "address payable",
              "name": "owner",
              "type": "address"
            },
            {
              "internalType": "uint256",
              "name": "price",
              "type": "uint256"
            },
            {
              "internalType": "bool",
              "name": "sold",
              "type": "bool"
            }
          ],
          "internalType": "struct NFTMarket.MarketItem[]",
          "name": "",
          "type": "tuple[]"
        }
      ],
      "stateMutability": "view",
      "type": "function"
    },
    {
      "inputs": [],
      "name": "fetchMyNFTs",
      "outputs": [
        {
          "components": [
            {
              "internalType": "uint256",
              "name": "itemId",
              "type": "uint256"
            },
            {
              "internalType": "address",
              "name": "nftContract",
              "type": "address"
            },
            {
              "internalType": "uint256",
              "name": "tokenId",
              "type": "uint256"
            },
            {
              "internalType": "address payable",
              "name": "seller",
              "type": "address"
            },
            {
              "internalType": "address payable",
              "name": "owner",
              "type": "address"
            },
            {
              "internalType": "uint256",
              "name": "price",
              "type": "uint256"
            },
            {
              "internalType": "bool",
              "name": "sold",
              "type": "bool"
            }
          ],
          "internalType": "struct NFTMarket.MarketItem[]",
          "name": "",
          "type": "tuple[]"
        }
      ],
      "stateMutability": "view",
      "type": "function"
    },
    {
      "inputs": [
        {
          "internalType": "uint256",
          "name": "tokenId",
          "type": "uint256"
        }
      ],
      "name": "relistItem",
      "outputs": [],
      "stateMutability": "payable",
      "type": "function"
    }
  ],
  "bytecode": "0x608060405234801561001057600080fd5b5060016000819055506119ee806100286000396000f3fe6080604052600436106100555760003560e01c80630f08efe01461005a5780631f0b9e7714610085578063202e3740146100a157806358eb2df5146100cc578063c23b139e146100e8578063f064c32e14610104575b600080fd5b34801561006657600080fd5b5061006f61012f565b60405161007c9190611678565b60405180910390f35b61009f600480360381019061009a91906113da565b610445565b005b3480156100ad57600080fd5b506100b6610582565b6040516100c39190611678565b60405180910390f35b6100e660048036038101906100e1919061138b565b61091c565b005b61010260048036038101906100fd919061134f565b610c3c565b005b34801561011057600080fd5b50610119610e8a565b6040516101269190611678565b60405180910390f35b6060600061013d6001611224565b9050600061014b6002611224565b6101556001611224565b61015f91906117ba565b90506000808267ffffffffffffffff8111156101a4577f4e487b7100000000000000000000000000000000000000000000000000000000600052604160045260246000fd5b6040519080825280602002602001820160405280156101dd57816020015b6101ca6112a4565b8152602001906001900390816101c25790505b50905060005b8481101561043a57600073ffffffffffffffffffffffffffffffffffffffff16600360006001846102149190611764565b815260200190815260200160002060040160009054906101000a900473ffffffffffffffffffffffffffffffffffffffff1673ffffffffffffffffffffffffffffffffffffffff1614156104275760006001826102719190611764565b90506000600360008381526020019081526020016000209050806040518060e0016040529081600082015481526020016001820160009054906101000a900473ffffffffffffffffffffffffffffffffffffffff1673ffffffffffffffffffffffffffffffffffffffff1673ffffffffffffffffffffffffffffffffffffffff168152602001600282015481526020016003820160009054906101000a900473ffffffffffffffffffffffffffffffffffffffff1673ffffffffffffffffffffffffffffffffffffffff1673ffffffffffffffffffffffffffffffffffffffff1681526020016004820160009054906101000a900473ffffffffffffffffffffffffffffffffffffffff1673ffffffffffffffffffffffffffffffffffffffff1673ffffffffffffffffffffffffffffffffffffffff168152602001600582015481526020016006820160009054906101000a900460ff16151515158152505084868151811061040a577f4e487b7100000000000000000000000000000000000000000000000000000000600052603260045260246000fd5b60200260200101819052506001856104229190611764565b945050505b808061043290611848565b9150506101e3565b508094505050505090565b6002600054141561048b576040517f08c379a0000000000000000000000000000000000000000000000000000000008152600401610482906116da565b60405180910390fd5b600260008190555060006003600083815260200190815260200160002060040160006101000a81548173ffffffffffffffffffffffffffffffffffffffff021916908373ffffffffffffffffffffffffffffffffffffffff16021790555060006003600083815260200190815260200160002060060160006101000a81548160ff021916908315150217905550336003600083815260200190815260200160002060030160006101000a81548173ffffffffffffffffffffffffffffffffffffffff021916908373ffffffffffffffffffffffffffffffffffffffff1602179055506105776002611232565b600160008190555050565b606060006105906001611224565b905060008060005b83811015610639573373ffffffffffffffffffffffffffffffffffffffff16600360006001846105c89190611764565b815260200190815260200160002060040160009054906101000a900473ffffffffffffffffffffffffffffffffffffffff1673ffffffffffffffffffffffffffffffffffffffff161415610626576001836106239190611764565b92505b808061063190611848565b915050610598565b5060008267ffffffffffffffff81111561067c577f4e487b7100000000000000000000000000000000000000000000000000000000600052604160045260246000fd5b6040519080825280602002602001820160405280156106b557816020015b6106a26112a4565b81526020019060019003908161069a5790505b50905060005b84811015610911573373ffffffffffffffffffffffffffffffffffffffff16600360006001846106eb9190611764565b815260200190815260200160002060040160009054906101000a900473ffffffffffffffffffffffffffffffffffffffff1673ffffffffffffffffffffffffffffffffffffffff1614156108fe5760006001826107489190611764565b90506000600360008381526020019081526020016000209050806040518060e0016040529081600082015481526020016001820160009054906101000a900473ffffffffffffffffffffffffffffffffffffffff1673ffffffffffffffffffffffffffffffffffffffff1673ffffffffffffffffffffffffffffffffffffffff168152602001600282015481526020016003820160009054906101000a900473ffffffffffffffffffffffffffffffffffffffff1673ffffffffffffffffffffffffffffffffffffffff1673ffffffffffffffffffffffffffffffffffffffff1681526020016004820160009054906101000a900473ffffffffffffffffffffffffffffffffffffffff1673ffffffffffffffffffffffffffffffffffffffff1673ffffffffffffffffffffffffffffffffffffffff168152602001600582015481526020016006820160009054906101000a900460ff1615151515815250508486815181106108e1577f4e487b7100000000000000000000000000000000000000000000000000000000600052603260045260246000fd5b60200260200101819052506001856108f99190611764565b945050505b808061090990611848565b9150506106bb565b508094505050505090565b60026000541415610962576040517f08c379a0000000000000000000000000000000000000000000000000000000008152600401610959906116da565b60405180910390fd5b6002600081905550600081116109ad576040517f08c379a00000000000000000000000000000000000000000000000000000000081526004016109a4906116fa565b60405180910390fd5b6109b7600161128e565b60006109c36001611224565b90506040518060e001604052808281526020018573ffffffffffffffffffffffffffffffffffffffff1681526020018481526020013373ffffffffffffffffffffffffffffffffffffffff168152602001600073ffffffffffffffffffffffffffffffffffffffff16815260200183815260200160001515815250600360008381526020019081526020016000206000820151816000015560208201518160010160006101000a81548173ffffffffffffffffffffffffffffffffffffffff021916908373ffffffffffffffffffffffffffffffffffffffff1602179055506040820151816002015560608201518160030160006101000a81548173ffffffffffffffffffffffffffffffffffffffff021916908373ffffffffffffffffffffffffffffffffffffffff16021790555060808201518160040160006101000a81548173ffffffffffffffffffffffffffffffffffffffff021916908373ffffffffffffffffffffffffffffffffffffffff16021790555060a0820151816005015560c08201518160060160006101000a81548160ff0219169083151502179055509050508373ffffffffffffffffffffffffffffffffffffffff166323b872dd3330866040518463ffffffff1660e01b8152600401610ba4939291906115fc565b600060405180830381600087803b158015610bbe57600080fd5b505af1158015610bd2573d6000803e3d6000fd5b50505050828473ffffffffffffffffffffffffffffffffffffffff16827f045dfa01dcba2b36aba1d3dc4a874f4b0c5d2fbeb8d2c4b34a7d88c8d8f929d1336000876000604051610c269493929190611633565b60405180910390a4506001600081905550505050565b60026000541415610c82576040517f08c379a0000000000000000000000000000000000000000000000000000000008152600401610c79906116da565b60405180910390fd5b6002600081905550600060036000838152602001908152602001600020600501549050600060036000848152602001908152602001600020600201549050813414610d02576040517f08c379a0000000000000000000000000000000000000000000000000000000008152600401610cf9906116ba565b60405180910390fd5b6003600084815260200190815260200160002060030160009054906101000a900473ffffffffffffffffffffffffffffffffffffffff1673ffffffffffffffffffffffffffffffffffffffff166108fc349081150290604051600060405180830381858888f19350505050158015610d7e573d6000803e3d6000fd5b508373ffffffffffffffffffffffffffffffffffffffff166323b872dd3033846040518463ffffffff1660e01b8152600401610dbc939291906115fc565b600060405180830381600087803b158015610dd657600080fd5b505af1158015610dea573d6000803e3d6000fd5b50505050336003600085815260200190815260200160002060040160006101000a81548173ffffffffffffffffffffffffffffffffffffffff021916908373ffffffffffffffffffffffffffffffffffffffff16021790555060016003600085815260200190815260200160002060060160006101000a81548160ff021916908315150217905550610e7c600261128e565b505060016000819055505050565b60606000610e986001611224565b905060008060005b83811015610f41573373ffffffffffffffffffffffffffffffffffffffff1660036000600184610ed09190611764565b815260200190815260200160002060030160009054906101000a900473ffffffffffffffffffffffffffffffffffffffff1673ffffffffffffffffffffffffffffffffffffffff161415610f2e57600183610f2b9190611764565b92505b8080610f3990611848565b915050610ea0565b5060008267ffffffffffffffff811115610f84577f4e487b7100000000000000000000000000000000000000000000000000000000600052604160045260246000fd5b604051908082528060200260200182016040528015610fbd57816020015b610faa6112a4565b815260200190600190039081610fa25790505b50905060005b84811015611219573373ffffffffffffffffffffffffffffffffffffffff1660036000600184610ff39190611764565b815260200190815260200160002060030160009054906101000a900473ffffffffffffffffffffffffffffffffffffffff1673ffffffffffffffffffffffffffffffffffffffff1614156112065760006001826110509190611764565b90506000600360008381526020019081526020016000209050806040518060e0016040529081600082015481526020016001820160009054906101000a900473ffffffffffffffffffffffffffffffffffffffff1673ffffffffffffffffffffffffffffffffffffffff1673ffffffffffffffffffffffffffffffffffffffff168152602001600282015481526020016003820160009054906101000a900473ffffffffffffffffffffffffffffffffffffffff1673ffffffffffffffffffffffffffffffffffffffff1673ffffffffffffffffffffffffffffffffffffffff1681526020016004820160009054906101000a900473ffffffffffffffffffffffffffffffffffffffff1673ffffffffffffffffffffffffffffffffffffffff1673ffffffffffffffffffffffffffffffffffffffff168152602001600582015481526020016006820160009054906101000a900460ff1615151515815250508486815181106111e9577f4e487b7100000000000000000000000000000000000000000000000000000000600052603260045260246000fd5b60200260200101819052506001856112019190611764565b945050505b808061121190611848565b915050610fc3565b508094505050505090565b600081600001549050919050565b6000816000015490506000811161127e576040517f08c379a00000000000000000000000000000000000000000000000000000000081526004016112759061169a565b60405180910390fd5b6001810382600001819055505050565b6001816000016000828254019250508190555050565b6040518060e0016040528060008152602001600073ffffffffffffffffffffffffffffffffffffffff16815260200160008152602001600073ffffffffffffffffffffffffffffffffffffffff168152602001600073ffffffffffffffffffffffffffffffffffffffff168152602001600081526020016000151581525090565b6000813590506113348161198a565b92915050565b600081359050611349816119a1565b92915050565b6000806040838503121561136257600080fd5b600061137085828601611325565b92505060206113818582860161133a565b9150509250929050565b6000806000606084860312156113a057600080fd5b60006113ae86828701611325565b93505060206113bf8682870161133a565b92505060406113d08682870161133a565b9150509250925092565b6000602082840312156113ec57600080fd5b60006113fa8482850161133a565b91505092915050565b600061140f8383611550565b60e08301905092915050565b61142481611800565b82525050565b611433816117ee565b82525050565b611442816117ee565b82525050565b60006114538261172a565b61145d8185611742565b93506114688361171a565b8060005b838110156114995781516114808882611403565b975061148b83611735565b92505060018101905061146c565b5085935050505092915050565b6114af81611812565b82525050565b6114be81611812565b82525050565b60006114d1601b83611753565b91506114dc826118c0565b602082019050919050565b60006114f4604083611753565b91506114ff826118e9565b604082019050919050565b6000611517601f83611753565b915061152282611938565b602082019050919050565b600061153a601c83611753565b915061154582611961565b602082019050919050565b60e08201600082015161156660008501826115de565b506020820151611579602085018261142a565b50604082015161158c60408501826115de565b50606082015161159f606085018261141b565b5060808201516115b2608085018261141b565b5060a08201516115c560a08501826115de565b5060c08201516115d860c08501826114a6565b50505050565b6115e78161183e565b82525050565b6115f68161183e565b82525050565b60006060820190506116116000830186611439565b61161e6020830185611439565b61162b60408301846115ed565b949350505050565b60006080820190506116486000830187611439565b6116556020830186611439565b61166260408301856115ed565b61166f60608301846114b5565b95945050505050565b600060208201905081810360008301526116928184611448565b905092915050565b600060208201905081810360008301526116b3816114c4565b9050919050565b600060208201905081810360008301526116d3816114e7565b9050919050565b600060208201905081810360008301526116f38161150a565b9050919050565b600060208201905081810360008301526117138161152d565b9050919050565b6000819050602082019050919050565b600081519050919050565b6000602082019050919050565b600082825260208201905092915050565b600082825260208201905092915050565b600061176f8261183e565b915061177a8361183e565b9250827fffffffffffffffffffffffffffffffffffffffffffffffffffffffffffffffff038211156117af576117ae611891565b5b828201905092915050565b60006117c58261183e565b91506117d08361183e565b9250828210156117e3576117e2611891565b5b828203905092915050565b60006117f98261181e565b9050919050565b600061180b8261181e565b9050919050565b60008115159050919050565b600073ffffffffffffffffffffffffffffffffffffffff82169050919050565b6000819050919050565b60006118538261183e565b91507fffffffffffffffffffffffffffffffffffffffffffffffffffffffffffffffff82141561188657611885611891565b5b600182019050919050565b7f4e487b7100000000000000000000000000000000000000000000000000000000600052601160045260246000fd5b7f436f756e7465723a2064656372656d656e74206f766572666c6f770000000000600082015250565b7f506c65617365207375626d6974207468652061736b696e67207072696365206960008201527f6e206f7264657220746f20636f6d706c65746520746865207075726368617365602082015250565b7f5265656e7472616e637947756172643a207265656e7472616e742063616c6c00600082015250565b7f5072696365206d757374206265206174206c6561737420312077656900000000600082015250565b611993816117ee565b811461199e57600080fd5b50565b6119aa8161183e565b81146119b557600080fd5b5056fea264697066735822122093297cdef78cdf7fd962671b38cdeca026fa99a19cf9a72bec4fee8e5b05a81f64736f6c63430008030033",
  "linkReferences": {},
  "deployedLinkReferences": {}
}