{
  "_format": "hh-sol-artifact-1",
  "contractName": "VehicleMarketPlace",
  "sourceName": "contracts/VehicleMarketplace.sol",
  "abi": [
    {
      "inputs": [],
      "stateMutability": "nonpayable",
      "type": "constructor"
    },
    {
      "anonymous": false,
      "inputs": [
        {
          "indexed": false,
          "internalType": "uint256",
          "name": "sku",
          "type": "uint256"
        }
      ],
      "name": "LogForSale",
      "type": "event"
    },
    {
      "anonymous": false,
      "inputs": [
        {
          "indexed": false,
          "internalType": "uint256",
          "name": "sku",
          "type": "uint256"
        }
      ],
      "name": "LogReceived",
      "type": "event"
    },
    {
      "anonymous": false,
      "inputs": [
        {
          "indexed": false,
          "internalType": "uint256",
          "name": "sku",
          "type": "uint256"
        }
      ],
      "name": "LogShipped",
      "type": "event"
    },
    {
      "anonymous": false,
      "inputs": [
        {
          "indexed": false,
          "internalType": "uint256",
          "name": "sku",
          "type": "uint256"
        }
      ],
      "name": "LogSold",
      "type": "event"
    },
    {
      "inputs": [
        {
          "internalType": "string",
          "name": "_name",
          "type": "string"
        },
        {
          "internalType": "uint256",
          "name": "_price",
          "type": "uint256"
        }
      ],
      "name": "addItem",
      "outputs": [
        {
          "internalType": "bool",
          "name": "",
          "type": "bool"
        }
      ],
      "stateMutability": "nonpayable",
      "type": "function"
    },
    {
      "inputs": [
        {
          "internalType": "uint256",
          "name": "sku",
          "type": "uint256"
        }
      ],
      "name": "buyItem",
      "outputs": [],
      "stateMutability": "payable",
      "type": "function"
    },
    {
      "inputs": [
        {
          "internalType": "uint256",
          "name": "_sku",
          "type": "uint256"
        }
      ],
      "name": "fetchItem",
      "outputs": [
        {
          "internalType": "string",
          "name": "name",
          "type": "string"
        },
        {
          "internalType": "uint256",
          "name": "sku",
          "type": "uint256"
        },
        {
          "internalType": "uint256",
          "name": "price",
          "type": "uint256"
        },
        {
          "internalType": "address",
          "name": "seller",
          "type": "address"
        },
        {
          "internalType": "address",
          "name": "buyer",
          "type": "address"
        }
      ],
      "stateMutability": "view",
      "type": "function"
    },
    {
      "inputs": [
        {
          "internalType": "uint256",
          "name": "",
          "type": "uint256"
        }
      ],
      "name": "items",
      "outputs": [
        {
          "internalType": "string",
          "name": "name",
          "type": "string"
        },
        {
          "internalType": "uint256",
          "name": "sku",
          "type": "uint256"
        },
        {
          "internalType": "uint256",
          "name": "price",
          "type": "uint256"
        },
        {
          "internalType": "enum VehicleMarketPlace.State",
          "name": "state",
          "type": "uint8"
        },
        {
          "internalType": "address payable",
          "name": "seller",
          "type": "address"
        },
        {
          "internalType": "address payable",
          "name": "buyer",
          "type": "address"
        }
      ],
      "stateMutability": "view",
      "type": "function"
    },
    {
      "inputs": [],
      "name": "owner",
      "outputs": [
        {
          "internalType": "address",
          "name": "",
          "type": "address"
        }
      ],
      "stateMutability": "view",
      "type": "function"
    },
    {
      "inputs": [
        {
          "internalType": "uint256",
          "name": "sku",
          "type": "uint256"
        }
      ],
      "name": "receiveItem",
      "outputs": [],
      "stateMutability": "nonpayable",
      "type": "function"
    },
    {
      "inputs": [
        {
          "internalType": "uint256",
          "name": "sku",
          "type": "uint256"
        }
      ],
      "name": "shipItem",
      "outputs": [],
      "stateMutability": "nonpayable",
      "type": "function"
    },
    {
      "inputs": [],
      "name": "skuCount",
      "outputs": [
        {
          "internalType": "uint256",
          "name": "",
          "type": "uint256"
        }
      ],
      "stateMutability": "view",
      "type": "function"
    },
    {
      "inputs": [],
      "name": "state",
      "outputs": [
        {
          "internalType": "enum VehicleMarketPlace.State",
          "name": "",
          "type": "uint8"
        }
      ],
      "stateMutability": "view",
      "type": "function"
    }
  ],
  "bytecode": "0x6080604052336000806101000a81548173ffffffffffffffffffffffffffffffffffffffff021916908373ffffffffffffffffffffffffffffffffffffffff160217905550600060015534801561005557600080fd5b50336000806101000a81548173ffffffffffffffffffffffffffffffffffffffff021916908373ffffffffffffffffffffffffffffffffffffffff16021790555060006001819055506114e0806100ad6000396000f3fe6080604052600436106100865760003560e01c8063ad4b9cfb11610059578063ad4b9cfb14610147578063bfb231d214610188578063c19d93fb146101ca578063e7fb74c7146101f5578063f61c899a1461021157610086565b8063227024731461008b57806362d6bbdf146100b65780638da5cb5b146100f3578063a26be9991461011e575b600080fd5b34801561009757600080fd5b506100a061023a565b6040516100ad91906111de565b60405180910390f35b3480156100c257600080fd5b506100dd60048036038101906100d89190610eaa565b610240565b6040516100ea9190611086565b60405180910390f35b3480156100ff57600080fd5b5061010861045f565b604051610115919061106b565b60405180910390f35b34801561012a57600080fd5b5061014560048036038101906101409190610efe565b610483565b005b34801561015357600080fd5b5061016e60048036038101906101699190610efe565b610670565b60405161017f9594939291906110bc565b60405180910390f35b34801561019457600080fd5b506101af60048036038101906101aa9190610efe565b6107c6565b6040516101c196959493929190611116565b60405180910390f35b3480156101d657600080fd5b506101df6108d7565b6040516101ec91906110a1565b60405180910390f35b61020f600480360381019061020a9190610efe565b6108ea565b005b34801561021d57600080fd5b5061023860048036038101906102339190610efe565b610b9d565b005b60015481565b60006040518060c0016040528084815260200160015481526020018381526020016000600381111561029b577f4e487b7100000000000000000000000000000000000000000000000000000000600052602160045260246000fd5b81526020013373ffffffffffffffffffffffffffffffffffffffff168152602001600073ffffffffffffffffffffffffffffffffffffffff168152506002600060015481526020019081526020016000206000820151816000019080519060200190610308929190610d8a565b50602082015181600101556040820151816002015560608201518160030160006101000a81548160ff0219169083600381111561036e577f4e487b7100000000000000000000000000000000000000000000000000000000600052602160045260246000fd5b021790555060808201518160030160016101000a81548173ffffffffffffffffffffffffffffffffffffffff021916908373ffffffffffffffffffffffffffffffffffffffff16021790555060a08201518160040160006101000a81548173ffffffffffffffffffffffffffffffffffffffff021916908373ffffffffffffffffffffffffffffffffffffffff1602179055509050506001600081548092919061041790611369565b91905055507f4627c48065af2a9648cbecdd4b9da340c00e501243cd49a8a71c30c987e8b76160015460405161044d91906111de565b60405180910390a16001905092915050565b60008054906101000a900473ffffffffffffffffffffffffffffffffffffffff1681565b80600260038111156104be577f4e487b7100000000000000000000000000000000000000000000000000000000600052602160045260246000fd5b6002600083815260200190815260200160002060030160009054906101000a900460ff16600381111561051a577f4e487b7100000000000000000000000000000000000000000000000000000000600052602160045260246000fd5b1461055a576040517f08c379a00000000000000000000000000000000000000000000000000000000081526004016105519061119e565b60405180910390fd5b813373ffffffffffffffffffffffffffffffffffffffff166002600083815260200190815260200160002060040160009054906101000a900473ffffffffffffffffffffffffffffffffffffffff1673ffffffffffffffffffffffffffffffffffffffff16146105c957600080fd5b600060026000858152602001908152602001600020905060038160030160006101000a81548160ff0219169083600381111561062e577f4e487b7100000000000000000000000000000000000000000000000000000000600052602160045260246000fd5b02179055507f5a98827d06afe0e04647b3aed26f1ffb77171ad9ac41603c4ef623a6638798c18460405161066291906111de565b60405180910390a150505050565b606060008060008060026000878152602001908152602001600020600001805461069990611337565b80601f01602080910402602001604051908101604052809291908181526020018280546106c590611337565b80156107125780601f106106e757610100808354040283529160200191610712565b820191906000526020600020905b8154815290600101906020018083116106f557829003601f168201915b5050505050945060026000878152602001908152602001600020600101549350600260008781526020019081526020016000206002015492506002600087815260200190815260200160002060030160019054906101000a900473ffffffffffffffffffffffffffffffffffffffff1691506002600087815260200190815260200160002060040160009054906101000a900473ffffffffffffffffffffffffffffffffffffffff16905091939590929450565b60026020528060005260406000206000915090508060000180546107e990611337565b80601f016020809104026020016040519081016040528092919081815260200182805461081590611337565b80156108625780601f1061083757610100808354040283529160200191610862565b820191906000526020600020905b81548152906001019060200180831161084557829003601f168201915b5050505050908060010154908060020154908060030160009054906101000a900460ff16908060030160019054906101000a900473ffffffffffffffffffffffffffffffffffffffff16908060040160009054906101000a900473ffffffffffffffffffffffffffffffffffffffff16905086565b600360009054906101000a900460ff1681565b80600073ffffffffffffffffffffffffffffffffffffffff166002600083815260200190815260200160002060030160019054906101000a900473ffffffffffffffffffffffffffffffffffffffff1673ffffffffffffffffffffffffffffffffffffffff16141580156109f1575060006003811115610993577f4e487b7100000000000000000000000000000000000000000000000000000000600052602160045260246000fd5b6002600083815260200190815260200160002060030160009054906101000a900460ff1660038111156109ef577f4e487b7100000000000000000000000000000000000000000000000000000000600052602160045260246000fd5b145b610a30576040517f08c379a0000000000000000000000000000000000000000000000000000000008152600401610a279061117e565b60405180910390fd5b3480341015610a3e57600080fd5b600060026000858152602001908152602001600020905060008160030160019054906101000a900473ffffffffffffffffffffffffffffffffffffffff169050338260040160006101000a81548173ffffffffffffffffffffffffffffffffffffffff021916908373ffffffffffffffffffffffffffffffffffffffff1602179055508073ffffffffffffffffffffffffffffffffffffffff166108fc83600201549081150290604051600060405180830381858888f19350505050158015610b0b573d6000803e3d6000fd5b5060018260030160006101000a81548160ff02191690836003811115610b5a577f4e487b7100000000000000000000000000000000000000000000000000000000600052602160045260246000fd5b02179055507fe64ca8c671e48636f85f3008c1dd538e36bfa74fb6f2790b56b72fcc33b879ef85604051610b8e91906111de565b60405180910390a15050505050565b8060016003811115610bd8577f4e487b7100000000000000000000000000000000000000000000000000000000600052602160045260246000fd5b6002600083815260200190815260200160002060030160009054906101000a900460ff166003811115610c34577f4e487b7100000000000000000000000000000000000000000000000000000000600052602160045260246000fd5b14610c74576040517f08c379a0000000000000000000000000000000000000000000000000000000008152600401610c6b906111be565b60405180910390fd5b813373ffffffffffffffffffffffffffffffffffffffff166002600083815260200190815260200160002060030160019054906101000a900473ffffffffffffffffffffffffffffffffffffffff1673ffffffffffffffffffffffffffffffffffffffff1614610ce357600080fd5b600060026000858152602001908152602001600020905060028160030160006101000a81548160ff02191690836003811115610d48577f4e487b7100000000000000000000000000000000000000000000000000000000600052602160045260246000fd5b02179055507feaf695929fec8154f0eafe7248c0e16855eb9ad09e623be92f669e544d53e85684604051610d7c91906111de565b60405180910390a150505050565b828054610d9690611337565b90600052602060002090601f016020900481019282610db85760008555610dff565b82601f10610dd157805160ff1916838001178555610dff565b82800160010185558215610dff579182015b82811115610dfe578251825591602001919060010190610de3565b5b509050610e0c9190610e10565b5090565b5b80821115610e29576000816000905550600101610e11565b5090565b6000610e40610e3b8461122a565b6111f9565b905082815260208101848484011115610e5857600080fd5b610e638482856112f5565b509392505050565b600082601f830112610e7c57600080fd5b8135610e8c848260208601610e2d565b91505092915050565b600081359050610ea481611493565b92915050565b60008060408385031215610ebd57600080fd5b600083013567ffffffffffffffff811115610ed757600080fd5b610ee385828601610e6b565b9250506020610ef485828601610e95565b9150509250929050565b600060208284031215610f1057600080fd5b6000610f1e84828501610e95565b91505092915050565b610f3081611288565b82525050565b610f3f81611276565b82525050565b610f4e8161129a565b82525050565b610f5d816112e3565b82525050565b6000610f6e8261125a565b610f788185611265565b9350610f88818560208601611304565b610f918161146e565b840191505092915050565b6000610fa9600c83611265565b91507f4e6f7420666f722073616c6500000000000000000000000000000000000000006000830152602082019050919050565b6000610fe9601d83611265565b91507f4974656d20686173206e6f7420796574206265656e20736869707065640000006000830152602082019050919050565b6000611029601a83611265565b91507f4974656d20686173206e6f7420796574206265656e20736f6c640000000000006000830152602082019050919050565b611065816112d9565b82525050565b60006020820190506110806000830184610f36565b92915050565b600060208201905061109b6000830184610f45565b92915050565b60006020820190506110b66000830184610f54565b92915050565b600060a08201905081810360008301526110d68188610f63565b90506110e5602083018761105c565b6110f2604083018661105c565b6110ff6060830185610f36565b61110c6080830184610f36565b9695505050505050565b600060c08201905081810360008301526111308189610f63565b905061113f602083018861105c565b61114c604083018761105c565b6111596060830186610f54565b6111666080830185610f27565b61117360a0830184610f27565b979650505050505050565b6000602082019050818103600083015261119781610f9c565b9050919050565b600060208201905081810360008301526111b781610fdc565b9050919050565b600060208201905081810360008301526111d78161101c565b9050919050565b60006020820190506111f3600083018461105c565b92915050565b6000604051905081810181811067ffffffffffffffff821117156112205761121f61143f565b5b8060405250919050565b600067ffffffffffffffff8211156112455761124461143f565b5b601f19601f8301169050602081019050919050565b600081519050919050565b600082825260208201905092915050565b6000611281826112b9565b9050919050565b6000611293826112b9565b9050919050565b60008115159050919050565b60008190506112b48261147f565b919050565b600073ffffffffffffffffffffffffffffffffffffffff82169050919050565b6000819050919050565b60006112ee826112a6565b9050919050565b82818337600083830152505050565b60005b83811015611322578082015181840152602081019050611307565b83811115611331576000848401525b50505050565b6000600282049050600182168061134f57607f821691505b6020821081141561136357611362611410565b5b50919050565b6000611374826112d9565b91507fffffffffffffffffffffffffffffffffffffffffffffffffffffffffffffffff8214156113a7576113a66113b2565b5b600182019050919050565b7f4e487b7100000000000000000000000000000000000000000000000000000000600052601160045260246000fd5b7f4e487b7100000000000000000000000000000000000000000000000000000000600052602160045260246000fd5b7f4e487b7100000000000000000000000000000000000000000000000000000000600052602260045260246000fd5b7f4e487b7100000000000000000000000000000000000000000000000000000000600052604160045260246000fd5b6000601f19601f8301169050919050565b600481106114905761148f6113e1565b5b50565b61149c816112d9565b81146114a757600080fd5b5056fea2646970667358221220bdfeb55f70cd70b62d258d6e990b3564cd4f8651f302a90e68d0bfe8585a6efe64736f6c63430008000033",
  "linkReferences": {},
  "deployedLinkReferences": {}
}